:100000000C943B000C9458000C9458000C9458002D
:100010000C9458000C9458000C9458000C94580000
:100020000C9458000C945A000C9458000C945800EE
:100030000C9458000C9458000C9458000C945800E0
:100040000C9458000C9458000C9458000C945800D0
:100050000C9458000C9458000C9458000C945800C0
:100060000C9458000C9458003D6F6B3D0050555354
:10007000482F41434B0011241FBECFEFD8E0DEBF15
:10008000CDBF11E0A0E0B1E0E8EEF5E302C00590DD
:100090000D92AE31B107D9F714E0AEE1B1E001C085
:1000A0001D92AC32B107E1F70E9413140C94F21ABE
:1000B0000C9400001F920F9200905F000F92112489
:1000C0002F933F938F939F93EF93FF93CF93DF9360
:1000D000CDB7DEB780912004853028F480912004CC
:1000E0008F5F80932004809121048F5F809321048F
:1000F000809121048D3361F4109221048BE290E011
:100100002BE230E0F901308128E02327FC01208335
:10011000DF91CF91FF91EF919F918F913F912F911F
:100120000F9000925F000F901F901895CF93DF9370
:10013000CDB7DEB784EB90E00E94081790931F04C0
:1001400080931E0484E290E024E230E0F9012081F3
:100150002160FC01208385E290E0FC01808185E242
:1001600090E0FC01108285E080932004DF91CF9124
:100170000895FF920F931F93CF93DF93CDB7DEB710
:100180002F970FB6F894DEBF0FBECDBF84EB90E083
:100190009F838E8380911E0490911F049A8389838C
:1001A00089819A819C012F5F3F4F3A832983DC012B
:1001B0008C9188870000809120048530E0F38FE5E2
:1001C00090E0FC0180818B83F89485E290E09D8330
:1001D0008C838C819D81DC018C91816089878C81ED
:1001E0009D81FC0180818E7F8A878A858B8788E04C
:1001F0008C87F985FD87FA84FE86E8857C856B858A
:100200008E819F8149815A812C813D81EF87D9015F
:10021000FF84FA010D851E850C93F7FC602F7A95FB
:100220006C93612F39F0FF1C00C000001C9300008C
:1002300000C0F2CF78E0F1901C930000019761F7C5
:10024000FF869D013D832C832F8528877C876B87C4
:100250009F838E838FE590E02B81DC012C9310929D
:1002600020042F960FB6F894DEBF0FBECDBFDF91EE
:10027000CF911F910F91FF900895CF93DF9300D0FE
:1002800000D0CDB7DEB789836A834B832C83898105
:100290008D3308F03EC040911E0450911F048981A7
:1002A000882F90E09C0121503109C901880F991FC6
:1002B000820F931F840F951F2B81FC012083409197
:1002C0001E0450911F048981882F90E09C012150C9
:1002D0003109C901880F991F820F931F0196840F5E
:1002E000951F2A81FC01208340911E0450911F0418
:1002F0008981882F90E09C0121503109C901880F24
:10030000991F820F931F0296840F951F2C81FC0169
:1003100020830F900F900F900F90DF91CF91089551
:10032000CF93DF93CDB7DEB72A970FB6F894DEBF31
:100330000FBECDBF9E838D8378876F8349872A87C1
:100340008985882F90E02F813885820F931F9A83AB
:1003500089831B821C8289858B831FC089819A8136
:10036000FC018081882309F41CC08C81882F90E0D7
:100370002D813E81820F931F29813A81F9012081CD
:10038000FC01208389819A8101969A8389838C81DB
:100390008F5F8C838B818F5F8B839B818A8589178D
:1003A000E8F68A85282F30E08985882F90E0A9011A
:1003B000481B590BCA0101962D813E81820F931F64
:1003C000FC01108200002A960FB6F894DEBF0FBE23
:1003D000CDBFDF91CF910895CF93DF9300D000D0B0
:1003E000CDB7DEB79C838B83198235C08B819C810E
:1003F0009C012F5F3F4F3C832B83FC0180818A83CC
:100400008A81803338F08A818A3320F48A8180534C
:100410008A8313C08A81813638F08A81873620F436
:100420008A8187558A8309C08A81813430F08A8124
:10043000873418F48A8187538A838981882F90E0D2
:1004400082959295907F9827807F9827982F8A8110
:100450008F70892B89838B819C81FC01808188230B
:1004600029F68981882F90E0292F2F938F9384E19B
:1004700091E0892F8F9384E191E08F930E942F1850
:100480000F900F900F900F9089810F900F900F9009
:100490000F90DF91CF910895CF93DF9300D0CDB728
:1004A000DEB789836A8385E290E025E230E0F901D6
:1004B00020812B7FFC0120838EE490E02A81322F63
:1004C0003F712981232BFC01208300008DE490E003
:1004D000FC0180818823D4F78EE490E0FC01108237
:1004E00000008DE490E0FC0180818823D4F78A81AC
:1004F00088235CF48EE490E0FC01108200008DE41F
:1005000090E0FC0180818823D4F785E290E025E229
:1005100030E0F90120812460FC0120838EE490E02A
:10052000FC0180810F900F90DF91CF910895CF93C0
:10053000DF9300D01F92CDB7DEB789836A834B83E8
:1005400085E290E025E230E0F90120812B7FFC017B
:1005500020838EE490E02A81322F3F712981232B62
:10056000FC01208300008DE490E0FC018081882361
:10057000D4F78EE490E02B81FC01208300008DE411
:1005800090E0FC0180818823D4F785E290E025E2A9
:1005900030E0F90120812460FC0120830F900F904E
:1005A0000F90DF91CF910895CF93DF9300D000D0CB
:1005B000CDB7DEB79A8389837C836B8385E290E035
:1005C00025E230E0F90120812B7FFC0120838EE4BD
:1005D00090E02AE3FC01208300008DE490E0FC0120
:1005E00080818823D4F71DC089819A8101979A83DD
:1005F00089838EE490E0FC01108200008DE490E09D
:10060000FC0180818823D4F78EE490E0FC012081F6
:100610008B819C81FC0120838B819C8101969C8332
:100620008B8389819A810097F9F68B819C81FC01EB
:10063000108285E290E025E230E0F901208124601B
:10064000FC0120830F900F900F900F90DF91CF91BE
:100650000895CF93DF9300D000D0CDB7DEB79A8353
:1006600089837C836B8385E290E025E230E0F901A9
:1006700020812B7FFC0120838EE490E02AE7FC019F
:10068000208300008DE490E0FC0180818823D4F772
:1006900019C089819A8101979A8389838EE490E0B9
:1006A0002B813C81F9012081FC0120838B819C817D
:1006B00001969C838B8300008DE490E0FC01808197
:1006C0008823D4F789819A81009719F785E290E011
:1006D00025E230E0F90120812460FC0120830F90A5
:1006E0000F900F900F90DF91CF910895CF93DF93EC
:1006F0001F92CDB7DEB789838981882F90E09C0156
:100700002076332780911E01882F90E02817390723
:10071000E9F043E06FE180EA0E9497028981882F27
:1007200090E08076992795958795959587959595ED
:1007300087959595879595958795482F6FE180E8E2
:100740000E9497028981807680931E010F90DF912D
:10075000CF910895CF93DF931F92CDB7DEB78983F2
:1007600089810E947603698180E00E944C020F908B
:10077000DF91CF910895CF93DF93CDB7DEB769971F
:100780000FB6F894DEBF0FBECDBF898F698D84EDA3
:100790000E94A80461E082ED0E94A80480E090E03D
:1007A000A0E7B1E489839A83AB83BC8325E535E573
:1007B00045E850E469817A818B819C810E94A5166D
:1007C000DC01CB018D839E83AF83B88720E030E0CE
:1007D00040E85FE36D817E818F8198850E9494154A
:1007E00088231CF481E0898791C020E030E04FE746
:1007F00053E46D817E818F8198850E94A116181621
:100800000CF07BC020E030E04AE754E469817A8153
:100810008B819C810E949815DC01CB018A879B8784
:10082000AC87BD8720E030E543E455E46A857B85ED
:100830008C859D850E94A516DC01CB018E879F8744
:10084000A88BB98B20E030E040E85FE36E857F85C0
:10085000888999890E94941588232CF481E090E07E
:100860009B8B8A8B3FC020E03FEF4FE757E46E85BC
:100870007F85888999890E94A11618164CF520E079
:1008800030E040E251E46A857B858C859D850E943D
:10089000A516DC01CB01BC01CD010E940016DC01D4
:1008A000CB019B8B8A8B0FC088E391E09D8B8C8B57
:1008B0008C899D890197F1F79D8B8C8B8A899B8907
:1008C00001979B8B8A8B8A899B89009769F724C043
:1008D0006E857F85888999890E940016DC01CB018D
:1008E0009B8B8A8B8A899B899F8B8E8B8E899F8914
:1008F0000197F1F79F8B8E8B0FC06D817E818F8169
:1009000098850E940016DC01CB0189878985888F34
:10091000888D8A95F1F7888F00008AEE0E94AA03DD
:10092000882F90E0817099270097B9F760E082EDF9
:100930000E94A80489ED0E94AA03882F90E069967E
:100940000FB6F894DEBF0FBECDBFDF91CF910895F3
:10095000CF93DF9300D0CDB7DEB789836A838981D7
:100960000E9476034A81698180E40E9497020F9079
:100970000F90DF91CF910895CF93DF93CDB7DEB77E
:100980006B970FB6F894DEBF0FBECDBF898F7B8FFC
:100990006A8F698D84ED0E94A8048A8D682F86ED88
:1009A0000E94A8048A8D9B8D892F9927682F87ED37
:1009B0000E94A804BEC080E090E0A0E7B1E4898373
:1009C0009A83AB83BC8325E535E545E850E469812E
:1009D0007A818B819C810E94A516DC01CB018D83DD
:1009E0009E83AF83B88720E030E040E85FE36D810D
:1009F0007E818F8198850E94941588231CF481E064
:100A0000898791C020E030E04FE753E46D817E811B
:100A10008F8198850E94A11618160CF07BC020E0EB
:100A200030E04AE754E469817A818B819C810E949D
:100A30009815DC01CB018A879B87AC87BD8720E0B6
:100A400030E543E455E46A857B858C859D850E946D
:100A5000A516DC01CB018E879F87A88BB98B20E080
:100A600030E040E85FE36E857F85888999890E9440
:100A7000941588232CF481E090E09B8B8A8B3FC0F7
:100A800020E03FEF4FE757E46E857F85888999899D
:100A90000E94A11618164CF520E030E040E251E427
:100AA0006A857B858C859D850E94A516DC01CB011E
:100AB000BC01CD010E940016DC01CB019B8B8A8B0F
:100AC0000FC088E391E09D8B8C8B8C899D89019769
:100AD000F1F79D8B8C8B8A899B8901979B8B8A8BE5
:100AE0008A899B89009769F724C06E857F858889EC
:100AF00099890E940016DC01CB019B8B8A8B8A8925
:100B00009B899F8B8E8B8E899F890197F1F79F8B95
:100B10008E8B0FC06D817E818F8198850E9400161B
:100B2000DC01CB0189878985888F888D8A95F1F7CB
:100B3000888F8AEE0E94AA03882F90E081709927FF
:100B4000009709F038CF6B960FB6F894DEBF0FBE52
:100B5000CDBFDF91CF910895CF93DF931F92CDB793
:100B6000DEB7898389818770682F85E70E94A80492
:100B70000F90DF91CF910895CF93DF9300D01F9214
:100B8000CDB7DEB79B838A8384E290E024E230E035
:100B9000F90120812460FC01208385E290E025E2B8
:100BA00030E0F90120812460FC01208384E290E0A0
:100BB00024E230E0F90120812862FC01208384E2F4
:100BC00090E024E230E0F90120812F7EFC012083B7
:100BD00085E290E025E230E0F9012081277FFC01E9
:100BE000208385E290E025E230E0F90120812F7D2D
:100BF000FC0120838CE490E020E5FC0120838DE45F
:100C000090E02DE430E0F90120812160FC01208397
:100C10004FEF60E08FEF0E9497028DEC898389810E
:100C20008A95F1F789831092200110921F0160E0EC
:100C300088E00E94A80460E089E00E94A80460E0C7
:100C40008CE00E94A80460E08DE00E94A8046EEF92
:100C50008AE00E94A80469E18BE00E94A8046FEF7B
:100C600084E00E94A80469E185E00E94A8046FEF77
:100C700086E00E94A8046FE187E00E94A80460EB70
:100C800088E30E94A8046FE388E20E94A80460E35E
:100C900089E20E94A80469EF80E30E94A80467EF3C
:100CA00081E30E94A8046DE080EC0E94A80460E04B
:100CB00081EC0E94A80442E362EC80E80E94970263
:100CC00062E186EC0E94A8046CE087EC0E94A80414
:100CD00062E184EC0E94A8046CED8AEC0E94A804F6
:100CE00065E08BEC0E94A8048A819B81FC018081D5
:100CF000682F84EE0E94A8048A819B810196FC01E2
:100D00008081682F85EE0E94A8048A819B810296CB
:100D1000FC018081682F82EE0E94A8048A819B8159
:100D20000396FC018081682F83EE0E94A8048A81CB
:100D30009B810496FC018081682F80EE0E94A804AC
:100D40008A819B810596FC018081682F81EE0E943B
:100D5000A80460E071E080E10E94BC048FE10E9481
:100D6000760340EC6BE180E80E94970244E06FE17B
:100D700080E80E9497020F900F900F90DF91CF9123
:100D80000895CF93DF93CDB7DEB782E70E94AA0321
:100D9000DF91CF910895CF93DF93CDB7DEB781E197
:100DA0000E94BB03009719F081E090E002C080E050
:100DB00090E0DF91CF910895CF93DF9300D000D0E2
:100DC000CDB7DEB79A8389837C836B8313C08CE1B4
:100DD0000E94AA03882F90E082709927009751F013
:100DE00040E86FE180E80E94970240E86FE180EA06
:100DF0000E9497026FE180E00E944C02882F90E0F1
:100E000088709927009719F76FEF82E00E94A80475
:100E100069E183E00E94A80489818150682F86E0FF
:100E20000E94A80489819A818150964E892F992722
:100E3000682F87E00E94A80440E060E08AE70E94F3
:100E400097022B813C8189819A81B9010E942903F3
:100E500048E06FE180E80E9497020F900F900F909A
:100E60000F90DF91CF910895CF93DF93CDB7DEB789
:100E700028970FB6F894DEBF0FBECDBF9E838D833B
:100E800078876F8389E30E94AA03882319F480E09E
:100E900090E0BEC080911F0190912001682F80E0FA
:100EA0000E94A80480911F0190912001892F992709
:100EB000682F81E00E94A80460E08AE30E944C024F
:100EC000882F90E09093200180931F0160E08AE3D7
:100ED0000E944C02882F90E0982F88279C018091D7
:100EE0001F0190912001822B932B909320018093DE
:100EF0001F0160E08AE30E944C02882F90E09A83F1
:100F0000898360E08AE30E944C02882F90E0982F4A
:100F1000882729813A81822B932B9A83898389811F
:100F20009A8104979A83898360E08AE30E944C0245
:100F3000882F90E09C838B8360E08AE30E944C02C0
:100F4000882F90E0982F88272B813C81822B932B30
:100F50009C838B838D819E819C01215031098981E5
:100F60009A812817390728F48D819E8101979A83E9
:100F700089838B819C8180789927009719F41A8244
:100F8000198207C02F81388589819A81B9010E9411
:100F9000D40280911F0190912001682F8CE00E9463
:100FA000A80480911F0190912001892F9927682F13
:100FB0008DE00E94A80480911F019091200101976B
:100FC0008F3F29E1920748F06EEF8CE00E94A80461
:100FD00069E18DE00E94A80414C080911F019091E6
:100FE00020018150682F8CE00E94A80480911F018D
:100FF000909120010197892F9927682F8DE00E94F9
:10100000A80440E46EE180E80E94970289819A81F9
:1010100028960FB6F894DEBF0FBECDBFDF91CF91FB
:101020000895CF93DF93CDB7DEB729970FB6F89425
:10103000DEBF0FBECDBF9E838D8378876F834987C8
:1010400019821A821B821C8289858130E9F4898188
:101050009A81AB81BC814196A11DB11D89839A8380
:10106000AB83BC838F8198850897CC01A0E0B0E06A
:1010700029813A814B815C81820F931FA41FB51F88
:1010800089839A83AB83BC8389858230F1F489811B
:101090009A81AB81BC810696A11DB11D89839A837B
:1010A000AB83BC838F8198850897CC01A0E0B0E02A
:1010B00029813A814B815C81820F931FA41FB51F48
:1010C00089839A83AB83BC832BC02AC08D819E8188
:1010D000FC018081882F90E0382F22278D819E810E
:1010E0000196FC018081882F90E0822B932BCC010C
:1010F000A0E0B0E029813A814B815C81820F931F8F
:10110000A41FB51F89839A83AB83BC838D819E8185
:1011100002969E838D838F819885029798878F830F
:101120008F8198858230910588F68F819885009708
:10113000C9F08D819E81FC018081882F90E0982FDD
:101140008827AA2797FDA095BA2F29813A814B813C
:101150005C81820F931FA41FB51F89839A83AB8381
:10116000BC8318C017C089819A81AB81BC819C0166
:10117000AD014427552789819A81AB81BC81CD017E
:10118000AA27BB27820F931FA41FB51F89839A83A9
:10119000AB83BC8389819A81AB81BC81CD01AA27B5
:1011A000BB270097A105B105F1F689819A81809549
:1011B000909529960FB6F894DEBF0FBECDBFDF9194
:1011C000CF910895CF93DF9300D000D000D0CDB75A
:1011D000DEB79B838A837D836C834E8319828E81E5
:1011E0008093060113C08981882F90E02981222FE6
:1011F00030E04C815D81240F351FF9012081895D2C
:101200009E4FFC01208389818F5F8983898184308F
:1012100050F3198213C08981882F90E02981222FF1
:1012200030E04A815B81240F351FF90120818F5DF9
:101230009E4FFC01208389818F5F8983898186305D
:1012400050F326960FB6F894DEBF0FBECDBFDF91E8
:10125000CF910895CF93DF9300D000D01F92CDB7E8
:10126000DEB79B838A837D836C8319828C819D8109
:101270008932910510F480E02DC08A819B810C9603
:10128000FC018081883039F48A819B810D96FC01B4
:101290008081863011F080E01DC018C08981882FC0
:1012A00090E086962A813B81820F931FFC0120816A
:1012B0008981882F90E0895D9E4FFC0180812817ED
:1012C00011F080E007C089818F5F89838981843034
:1012D00028F381E00F900F900F900F900F90DF9107
:1012E000CF910895CF93DF9300D000D01F92CDB758
:1012F000DEB79B838A837D836C8319828C819D8179
:101300008A32910510F480E036C08A819B810C9668
:10131000FC018081883039F48A819B810D96FC0123
:101320008081882311F080E026C08A819B810E96FF
:10133000FC018081853411F080E01DC018C08981D6
:10134000882F90E04E962A813B81820F931FFC01EB
:1013500020818981882F90E0895D9E4FFC018081EA
:10136000281711F080E007C089818F5F8983898108
:10137000843028F381E00F900F900F900F900F9022
:10138000DF91CF910895CF93DF9300D01F92CDB717
:10139000DEB79B838A83198228C08981882F90E0D9
:1013A0002A813B81820F931F2981222F30E02A5FFF
:1013B0003F4F4A815B81240F351FF9012081FC01D9
:1013C00020838981882F90E006962A813B81820FB5
:1013D000931F2981222F30E02F5D3E4FF90120819C
:1013E000FC01208389818F5F898389818630A8F2FF
:1013F0000F900F900F90DF91CF910895CF93DF93CF
:1014000000D000D0CDB7DEB79C838B838B819C81CD
:101410004896FC0110828B819C814996FC011082C8
:101420008B819C81449620E4FC0120838B819C81EC
:101430004596FC0110828B819C81469620E4FC013C
:1014400020838B819C810E9640E064E170E00E94D5
:1014500011089A8389838B819C81489629813A81DE
:10146000232F3327FC0120838B819C81499629817E
:10147000FC0120830F900F900F900F90DF91CF9180
:101480000895CF93DF9300D01F92CDB7DEB79B8333
:101490008A83198229C08981882F90E04E962A81FB
:1014A0003B81820F931F2981222F30E0265E3F4F20
:1014B0004A815B81240F351FF9012081FC012083C3
:1014C0008981882F90E04A962A813B81820F931F61
:1014D0002981222F30E0295D3E4FF9012081FC0156
:1014E000208389818F5F898389818430A0F28A81FA
:1014F0009B810E94FE090F900F900F90DF91CF917A
:101500000895CF93DF93CDB7DEB728970FB6F89441
:10151000DEBF0FBECDBF9C838B837E836D834F83E5
:101520002887198222C08981882F90E084962B8198
:101530003C81820F931F2981222F30E02E5D3F4F87
:101540004B815C81240F351FF9012081FC01208330
:101550008981882F90E082962B813C81820F931F96
:10156000FC01108289818F5F898389818230D8F262
:101570008B819C81839620910601FC01208384E06D
:1015800089834AC08981882F90E085962B813C8190
:10159000820F931FFC018081882F90E02D813E8176
:1015A000820F931F9E838D838981882F90E0899677
:1015B0002B813C81820F931FFC0180818A8389816A
:1015C000882F90E089962B813C81820F931F2D817B
:1015D000FC0120838885882361F08981882F90E031
:1015E00085962B813C81820F931F2A81FC012083E9
:1015F0000AC08981882F90E085962B813C81820FDB
:10160000931FFC0110828D819E81892F99279E83D3
:101610008D838981815089838981882309F0B2CFA4
:1016200088858823D9F48B819C818696FC01108261
:101630008B819C818796FC0110828B819C8188968E
:1016400020910701FC0120838B819C818996FC01FC
:101650001082809107018E5F809307018B819C81AE
:10166000C296FC0110828B819C81C396FC01108282
:101670008F818823F9F08B819C81C69622E0FC0142
:1016800020838B819C81C79624E0FC0120838B8181
:101690009C81C89625E0FC0120838B819C81C996A2
:1016A00020E8FC0120838B819C818E9620E6FC0142
:1016B000208306C08B819C818E9620E5FC012083CF
:1016C00028960FB6F894DEBF0FBECDBFDF91CF9145
:1016D0000895CF93DF9300D01F92CDB7DEB79B83E1
:1016E0008A8319828A819B810E94C3098A819B8196
:1016F0004496FC0110828A819B81459622E0FC0180
:10170000208329C08981882F90E080962A813B819F
:10171000820F931F2981222F30E02A5E3F4F4A819A
:101720005B81240F351FF9012081FC012083898111
:10173000882F90E046962A813B81820F931F298152
:10174000222F30E02F5D3E4FF9012081FC012083E4
:1017500089818F5F898389818630A0F2198229C0AF
:101760008981882F90E086962A813B81820F931F82
:101770002981222F30E0245E3F4F4A815B81240F74
:10178000351FF9012081FC0120838981882F90E099
:101790004C962A813B81820F931F2981222F30E0B2
:1017A000295D3E4FF9012081FC01208389818F5FF3
:1017B000898389818430A0F28A819B81BC018AE27D
:1017C00090E00E94DC060F900F900F90DF91CF9178
:1017D0000895CF93DF9300D000D0CDB7DEB79A83C2
:1017E00089837C836B8389819A810E94C309898163
:1017F0009A810E94410A89819A818296FC01108215
:1018000089819A818496FC018081883F40F089819A
:101810009A818596FC0120812F5FFC0120838981BC
:101820009A81849629813A812C5D3F4FF90120816C
:10183000285FFC01208329813A818B819C81B90139
:101840000E94DC060F900F900F900F90DF91CF91C8
:101850000895CF93DF93CDB7DEB72A970FB6F894EC
:10186000DEBF0FBECDBF9D838C837F836E83488791
:101870003A87298719828C819D810E94C3098885B6
:101880008D3D10F08CED88878C819D814096FC0108
:1018900010828C819D8141962885245EFC012083E5
:1018A0008C819D810E94410A8C819D81849629852D
:1018B0003A85232F3327FC0120838C819D818596D7
:1018C0002985FC0120838C819D818696FC011082F4
:1018D0008C819D8187962885285FFC0120838C81DF
:1018E0009D818896FC0110828C819D818996FC01E6
:1018F000108216C08981882F90E08A962C813D81C4
:10190000820F931F2981222F30E04E815F81240FA7
:10191000351FF9012081FC01208389818F5F898334
:1019200099818885981730F38885882F90E04096B4
:101930009C018C819D814A9641E0B9010E94110869
:101940009B838A838C819D8188962A813B81232F6A
:101950003327FC0120838C819D8189962A81FC019B
:1019600020838885882F90E08A962C813D81B9015B
:101970000E94DC062A960FB6F894DEBF0FBECDBFDC
:10198000DF91CF910895CF93DF9300D000D0CDB7F2
:10199000DEB79C838B838B819C810E94C3098B81E2
:1019A0009C814096FC0110828B819C8141962CE2A7
:1019B000FC0120838B819C810E94410A8B819C8148
:1019C0008F9622E1FC0120838B819C8120E041E005
:1019D00061E070E00E94810A8B819C814A9642E01E
:1019E00060E270E00E9411089A8389838B819C8158
:1019F000C29629813A81232F3327FC0120838B81D2
:101A00009C81C3962981FC0120838B819C81BC0130
:101A10008AE390E00E94DC060F900F900F900F90E9
:101A2000DF91CF910895CF93DF93CDB7DEB780914B
:101A30002D0190912E01009731F080912B01909112
:101A40002C01829602C080E090E0DF91CF91089552
:101A5000CF93DF9300D0CDB7DEB79A838983898196
:101A60009A814096FC018081882F90E0382F2227B0
:101A700089819A814196FC018081882F90E0992785
:101A8000822B932B90932E0180932D0180912D0119
:101A900090912E01449790932E0180932D0189817E
:101AA0009A818E96FC01808182958F70882F90E0BC
:101AB000880F991F880F991F90932C0180932B01F9
:101AC00020912D0130912E0180912B0190912C01BC
:101AD000A901481B590BCA0190932E0180932D0137
:101AE00080912D0190912E011816190624F0109264
:101AF0002E0110922D010F900F90DF91CF9108953C
:101B0000CF93DF93CDB7DEB72A970FB6F894DEBF39
:101B10000FBECDBF9E838D8378876F835A87498799
:101B20000FC08F819885C6962D813E81820F931FAD
:101B30002C81FC0120838F819885019698878F8363
:101B400089859A859C012F5F3F4F3A8729879A8321
:101B5000898389819A81FC0184918B838B818C8319
:101B60008C818823F1F68F8198852A960FB6F89498
:101B7000DEBF0FBECDBFDF91CF910895CF93DF932E
:101B800000D000D000D0CDB7DEB79A8389837C83A4
:101B90006B835E834D8317C08B819C81C6962981A0
:101BA0003A81820F931F2D813E81F9012081FC0132
:101BB00020838B819C8101969C838B838D819E8168
:101BC00001969E838D838D819E81FC018081882377
:101BD00019F78B819C8126960FB6F894DEBF0FBE55
:101BE000CDBFDF91CF910895CF93DF9300D000D088
:101BF000CDB7DEB79C838B838B819C810E94C30908
:101C00008B819C818F9620E1FC01208380912D01A6
:101C100090912E01009749F48B819C8121E040E056
:101C200061E070E00E94810A0BC080912D019091CB
:101C30002E01BC018B819C8121E040E00E94810A41
:101C400088E290E09A8389838B819C8140962981E8
:101C50003A81232F3327FC0120838B819C8141967D
:101C60002981FC0120838B819C810E94410A8B8108
:101C70009C814A9642E06CE170E00E9411089A83D0
:101C800089838B819C81C29629813A81232F3327B6
:101C9000FC0120838B819C81C3962981FC012083D8
:101CA0008B819C81BC0186E390E00E94DC060F9052
:101CB0000F900F900F90DF91CF910895CF93DF9306
:101CC00000D000D000D0CDB7DEB79C838B837E835D
:101CD0006D838B819C818F9629E1FC0120838D810E
:101CE0009E8188969A8389838B819C8140962981E5
:101CF0003A81232F3327FC0120838B819C814196DD
:101D00002981FC0120838B819C810E94FE098B81AB
:101D10009C81C296FC0110828B819C81C396FC0140
:101D200010828D819E819C01245E3F4F8B819C811E
:101D30004A9642E0B9010E9411089A8389838B81F7
:101D40009C81C29629813A81232F3327FC0120836D
:101D50008B819C81C3962981FC0120838D819E818A
:101D6000C6962B813C81B9010E94DC0626960FB6EF
:101D7000F894DEBF0FBECDBFDF91CF910895CF9312
:101D8000DF931F92CDB7DEB789838981882F90E0DA
:101D900088709927009751F08BE290E02BE230E0B9
:101DA000F90120812068FC01208309C08BE290E0CA
:101DB0002BE230E0F90120812F77FC01208389811B
:101DC000882F90E084709927009751F08BE290E083
:101DD0002BE230E0F90120812064FC01208309C05E
:101DE0008BE290E02BE230E0F90120812F7BFC01B7
:101DF00020838981882F90E082709927009751F085
:101E00008BE290E02BE230E0F90120812062FC01BE
:101E1000208309C08BE290E02BE230E0F9012081C1
:101E20002F7DFC0120838981882F90E08170992784
:101E3000009751F08BE290E02BE230E0F901208135
:101E40002061FC01208309C08BE290E02BE230E0AE
:101E5000F90120812F7EFC0120830F90DF91CF912B
:101E60000895CF93DF931F92CDB7DEB78983898121
:101E7000882354F48BE290E02BE230E0F9012081DA
:101E80002068FC01208309C08BE290E02BE230E067
:101E9000F90120812F77FC0120838981882F90E030
:101EA00080749927009751F08BE290E02BE230E0AC
:101EB000F90120812064FC01208309C08BE290E0BD
:101EC0002BE230E0F90120812F7BFC012083898106
:101ED000882F90E080729927009751F08BE290E074
:101EE0002BE230E0F90120812062FC01208309C04F
:101EF0008BE290E02BE230E0F90120812F7DFC01A4
:101F000020838981882F90E080719927009751F074
:101F10008BE290E02BE230E0F90120812061FC01AE
:101F2000208309C08BE290E02BE230E0F9012081B0
:101F30002F7EFC0120830F90DF91CF910895CF93E6
:101F4000DF93CDB7DEB7E0970FB6F894DEBF0FBED4
:101F5000CDBF8BE290E02BE230E0F90120812860D8
:101F6000FC01208380E090E0A0E2B1E489839A83C1
:101F7000AB83BC832BEA3AEA4AEA50E469817A816E
:101F80008B819C810E94A516DC01CB018D839E83F1
:101F9000AF83B88720E030E040E85FE36D817E8169
:101FA0008F8198850E94941588231CF481E089878D
:101FB00091C020E030E04FE753E46D817E818F8156
:101FC00098850E94A11618160CF07BC020E030E026
:101FD0004AE754E469817A818B819C810E9498153B
:101FE000DC01CB018A879B87AC87BD8720E030E08E
:101FF0004AE755E46A857B858C859D850E94A516F8
:10200000DC01CB018E879F87A88BB98B20E030E065
:1020100040E85FE36E857F85888999890E949415E1
:1020200088232CF481E090E09B8B8A8B3FC020E0DA
:102030003FEF4FE757E46E857F85888999890E9435
:10204000A11618164CF520E030E040E251E46A8514
:102050007B858C859D850E94A516DC01CB01BC018A
:10206000CD010E940016DC01CB019B8B8A8B0FC037
:1020700080E991E09D8B8C8B8C899D890197F1F78C
:102080009D8B8C8B8A899B8901979B8B8A8B8A89F4
:102090009B89009769F724C06E857F858889998917
:1020A0000E940016DC01CB019B8B8A8B8A899B895D
:1020B0009F8B8E8B8E899F890197F1F79F8B8E8BDB
:1020C0000FC06D817E818F8198850E940016DC0192
:1020D000CB0189878985888F888D8A95F1F7888FCC
:1020E0008BE290E02BE230E0F9012081277FFC01B8
:1020F000208380E090E0A0E0B0E4898F9A8FAB8FDE
:10210000BC8F2BEA3AEA4AEA50E4698D7A8D8B8DCE
:102110009C8D0E94A516DC01CB018D8F9E8FAF8F09
:10212000B8A320E030E040E85FE36D8D7E8D8F8DB9
:1021300098A10E94941588231CF481E089A391C082
:1021400020E030E04FE753E46D8D7E8D8F8D98A1B8
:102150000E94A11618160CF07BC020E030E04AE780
:1021600054E4698D7A8D8B8D9C8D0E949815DC01CD
:10217000CB018AA39BA3ACA3BDA320E030E04AE738
:1021800055E46AA17BA18CA19DA10E94A516DC014A
:10219000CB018EA39FA3A8A7B9A720E030E040E819
:1021A0005FE36EA17FA188A599A50E94941588235D
:1021B0002CF481E090E09BA78AA73FC020E03FEF8E
:1021C0004FE757E46EA17FA188A599A50E94A116AB
:1021D00018164CF520E030E040E251E46AA17BA102
:1021E0008CA19DA10E94A516DC01CB01BC01CD01F3
:1021F0000E940016DC01CB019BA78AA70FC080E9D3
:1022000091E09DA78CA78CA59DA50197F1F79DA7AF
:102210008CA78AA59BA501979BA78AA78AA59BA5A2
:10222000009769F724C06EA17FA188A599A50E9497
:102230000016DC01CB019BA78AA78AA59BA59FA7B7
:102240008EA78EA59FA50197F1F79FA78EA70FC018
:102250006D8D7E8D8F8D98A10E940016DC01CB01C3
:1022600089A389A188AB88A98A95F1F788ABE09604
:102270000FB6F894DEBF0FBECDBFDF91CF910895AA
:10228000CF93DF9300D0CDB7DEB789836A838AE22C
:1022900090E02AE230E0F90120812068FC012083EF
:1022A0008AE290E02AE230E0F90120812064FC011A
:1022B00020838AE290E02AE230E0F9012081206266
:1022C000FC0120838AE290E02AE230E0F9012081DB
:1022D0002061FC01208389810E94310F8A8188233B
:1022E00051F08BE290E02BE230E0F9012081246094
:1022F000FC01208309C08BE290E02BE230E0F90181
:1023000020812B7FFC0120830E949F0F89810E94E6
:10231000BF0E8A81882351F08BE290E02BE230E0FF
:10232000F90120812460FC01208309C08BE290E048
:102330002BE230E0F90120812B7FFC0120830E94F9
:102340009F0F0F900F90DF91CF910895CF93DF9360
:10235000CDB7DEB769970FB6F894DEBF0FBECDBF1D
:10236000898F80E090E0A0E2B1E489839A83AB8317
:10237000BC832BEA3AEA4AEA50E469817A818B818C
:102380009C810E94A516DC01CB018D839E83AF83C7
:10239000B88720E030E040E85FE36D817E818F8187
:1023A00098850E94941588231CF481E0898791C048
:1023B00020E030E04FE753E46D817E818F81988586
:1023C0000E94A11618160CF07BC020E030E04AE70E
:1023D00054E469817A818B819C810E949815DC018B
:1023E000CB018A879B87AC87BD8720E030E04AE736
:1023F00055E46A857B858C859D850E94A516DC0148
:10240000CB018E879F87A88BB98B20E030E040E816
:102410005FE36E857F85888999890E94941588235A
:102420002CF481E090E09B8B8A8B3FC020E03FEF53
:102430004FE757E46E857F85888999890E94A116A8
:1024400018164CF520E030E040E251E46A857B85C7
:102450008C859D850E94A516DC01CB01BC01CD01B8
:102460000E940016DC01CB019B8B8A8B0FC080E998
:1024700091E09D8B8C8B8C899D890197F1F79D8BC9
:102480008C8B8A899B8901979B8B8A8B8A899B89F4
:10249000009769F724C06E857F85888999890E9495
:1024A0000016DC01CB019B8B8A8B8A899B899F8BD1
:1024B0008E8B8E899F890197F1F79F8B8E8B0FC032
:1024C0006D817E818F8198850E940016DC01CB0191
:1024D00089878985888F888D8A95F1F7888F898D7E
:1024E000882321F083E090E00E94811380E06996C8
:1024F0000FB6F894DEBF0FBECDBFDF91CF91089528
:10250000CF93DF931F92CDB7DEB7898380E00E941F
:10251000A61160E089810E94401181E00E94A6110D
:102520000F90DF91CF910895CF93DF9300D0CDB777
:10253000DEB789836A838A81882329F48981805858
:102540000E94801204C0898180540E9480120F90E2
:102550000F90DF91CF910895CF93DF931F92CDB766
:10256000DEB7898380E00E94A61161E089810E9424
:10257000401181E00E94A6110F90DF91CF91089544
:10258000CF93DF9300D0CDB7DEB79A8389830BC09A
:1025900089819A81FC0180810E94AC1289819A8193
:1025A00001969A83898389819A81FC01808188239D
:1025B00079F70F900F90DF91CF9108951F93CF93EC
:1025C000DF9300D000D01F92CDB7DEB79D838C8300
:1025D00003C0812F0E94AC128C819D819C012F5FD2
:1025E0003F4F3D832C839A83898389819A81FC01A3
:1025F00084918B838B81182F112359F70F900F90A3
:102600000F900F900F90DF91CF911F910895CF936E
:10261000DF931F92CDB7DEB789838AE290E02AE28A
:1026200030E0F90120812068FC0120838AE290E0FB
:102630002AE230E0F90120812064FC0120838AE253
:1026400090E02AE230E0F90120812062FC01208341
:102650008AE290E02AE230E0F90120812061FC0169
:1026600020838AE290E02AE230E0F90120812460B0
:10267000FC0120838AE290E02AE230E0F901208127
:102680002860FC0120838EE090E00E94811380E3AB
:102690000E94310F0E949F0F84E090E00E948113FE
:1026A00080E30E94310F0E949F0F84E090E00E941F
:1026B000811380E30E94310F0E949F0F84E090E01D
:1026C0000E94811380E20E94310F0E949F0F84E0DC
:1026D00090E00E94811388E20E94801288E00E94AC
:1026E000801281E00E94801286E00E94801289811F
:1026F0000E94801282E00E94A6110F90DF91CF917C
:102700000895CF93DF93CDB7DEB760970FB6F894F7
:10271000DEBF0FBECDBF988B8F8777C08FE892EC5E
:10272000A5E7BFE389839A83AB83BC8320E030E0D5
:102730004AE755E469817A818B819C810E94A516C4
:10274000DC01CB018D839E83AF83B88720E030E02E
:1027500040E85FE36D817E818F8198850E949415AA
:1027600088232CF481E090E09A8789873FC020E09D
:102770003FEF4FE757E46D817E818F8198850E94FE
:10278000A11618164CF520E030E040E251E46981D2
:102790007A818B819C810E94A516DC01CB01BC0152
:1027A000CD010E940016DC01CB019A8789870FC0FA
:1027B00080E991E09C878B878B859C850197F1F759
:1027C0009C878B8789859A8501979A8789878985D0
:1027D0009A85009769F714C06D817E818F819885F5
:1027E0000E940016DC01CB019A87898789859A852A
:1027F0009E878D878D859E850197F1F79E878D87B2
:102800008F8598890197988B8F878F8598890097F6
:1028100009F084CF60960FB6F894DEBF0FBECDBF2F
:10282000DF91CF910895CF93DF93CDB7DEB72F9788
:102830000FB6F894DEBF0FBECDBF81EB90E021EB69
:1028400030E0F9012081287FFC01208387E390E0BC
:1028500027E330E0F90120812160FC01208380E73B
:1028600090E020E730E0F90120812160FC01208325
:1028700086EB90E026EB30E0F90120812F7DFC0112
:10288000208380EB90E020EB30E0F90120812F7D68
:10289000FC01208380EB90E020EB30E0F901208107
:1028A0002F7EFC01208381EB90E021EB30E0F901E9
:1028B0002081277FFC01208380EB90E020EB30E03B
:1028C000F90120812D7FFC01208380EB90E020EB3B
:1028D00030E0F90120812E7FFC01208381EB90E024
:1028E00021EB30E0F9012081297FFC01208381EB7D
:1028F00090E021EB30E0F90120812160FC01208390
:1029000088E091E00E94BC0582E00E94AC0582E371
:102910008B878B858A95F1F78B8766E774E084E176
:102920000E94BC0482E38C878C858A95F1F78C87A2
:102930008CE00E94071381E00E94801288E690E0FC
:102940000E94DE128091120190911301482F6EE0D7
:1029500071E088E091E00E94E20878940E9496007D
:102960002FEF40E060E083E00E943D010E94B9004B
:10297000F8946FE271E08EEE92E00E9434079B8340
:102980008A838A819B81009709F4CDC08A819B81CB
:10299000BC018FE291E00E942A09882329F08FE28E
:1029A00091E00E94690BBFC08A819B81BC018FE2CC
:1029B00091E00E947209882309F4B5C08091460114
:1029C000813061F480915101883041F48A819B818A
:1029D000BC018FE291E00E94E90BA5C08091460105
:1029E000863009F0A0C080915301882309F09BC074
:1029F00080915401282F30E08091120190911301B1
:102A00002817390709F08FC080915E01882F90E068
:102A100082709927009729F08FE291E00E94C30C01
:102A200082C080915E01882F90E080719927009785
:102A300009F479C08FE291E00E94280D0E94130DE5
:102A40009D838C838C819D81009771F480915E01C0
:102A5000882F90E081709927009729F08FE291E00C
:102A60000E94F40D60C05FC080915E01882F90E0ED
:102A700088719927009709F455C081E00E9480125F
:102A80008DE690E00E94DE128FE291E00E94F40D4C
:102A90008C819D81815D9E4F9F838E8361E080E06C
:102AA0000E9494128E819F810E94C0126E817F814C
:102AB000CE010D9621E040E00E949001CE010D96DE
:102AC0000E94EC0188876E817F81CE010D9623E004
:102AD00042E00E949001CE010D960E94EC01898790
:102AE0006E817F81CE010D9625E044E00E94900129
:102AF000CE010D960E94EC018A8719820BC02A85AF
:102B0000398598858981432F692F0E943D018981EC
:102B10008F5F898389818E3194F378940E94B90004
:102B2000F89400C0000025CF97D008F481E0089504
:102B30000CD0CDC0C5D040F0BCD030F021F45F3F08
:102B400019F0AEC05111F7C0B1C0D2D098F399239B
:102B5000C9F35523B1F3951B550BBB27AA27621761
:102B60007307840738F09F5F5F4F220F331F441FA6
:102B7000AA1FA9F333D00E2E3AF0E0E830D09150DE
:102B80005040E695001CCAF729D0FE2F27D0660FCB
:102B9000771F881FBB1F261737074807AB07B0E80A
:102BA00009F0BB0B802DBF01FF2793585F4F2AF020
:102BB0009E3F510568F074C0BEC05F3FECF3983E85
:102BC000DCF3869577956795B795F7959F5FC9F77D
:102BD000880F911D9695879597F90895E1E0660F06
:102BE000771F881FBB1F621773078407BA0720F07F
:102BF000621B730B840BBA0BEE1F88F7E0950895E8
:102C00007FD088F09F5790F0B92F9927B751A0F047
:102C1000D1F0660F771F881F991F1AF0BA95C9F770
:102C200012C0B13081F086D0B1E0089583C0672F23
:102C3000782F8827B85F39F0B93FCCF38695779520
:102C40006795B395D9F73EF4909580957095619509
:102C50007F4F8F4F9F4F0895990F0008550FAA0B74
:102C6000E0E8FEEF16161706E807F907C0F012169F
:102C70001306E407F50798F0621B730B840B950BA2
:102C800039F40A2661F0232B242B252B21F40895F7
:102C90000A2609F4A140A6958FEF811D811D089594
:102CA00097F99F6780E870E060E008959FEF80ECFF
:102CB000089500240A9416161706180609060895A2
:102CC00000240A9412161306140605060895092E08
:102CD0000394000C11F4882352F0BB0F40F4BF2B77
:102CE00011F460FF04C06F5F7F4F8F4F9F4F0895B7
:102CF00057FD9058440F551F59F05F3F71F04795AD
:102D0000880F97FB991F61F09F3F79F08795089591
:102D1000121613061406551FF2CF4695F1DF08C0B0
:102D2000161617061806991FF1CF869571056105CD
:102D300008940895E894BB2766277727CB0197F975
:102D400008958ADF08F48FEF08950BD0C0CFB1DF6C
:102D500028F0B6DF18F0952309F0A2CFA7CF1124F1
:102D6000EACFC6DFA0F3959FD1F3950F50E0551F32
:102D7000629FF001729FBB27F00DB11D639FAA27D0
:102D8000F00DB11DAA1F649F6627B00DA11D661F1F
:102D9000829F2227B00DA11D621F739FB00DA11D40
:102DA000621F839FA00D611D221F749F3327A00DFA
:102DB000611D231F849F600D211D822F762F6A2F96
:102DC00011249F5750408AF0E1F088234AF0EE0F1B
:102DD000FF1FBB1F661F771F881F91505040A9F728
:102DE0009E3F510570F05CCFA6CF5F3FECF3983E5D
:102DF000DCF3869577956795B795F795E7959F5F8F
:102E0000C1F7FE2B880F911D9695879597F9089528
:102E1000CF93DF938230910510F482E090E0E0914F
:102E20002404F091250420E030E0A0E0B0E03097E9
:102E300039F14081518148175907B8F048175907AF
:102E400071F482819381109729F013969C938E934D
:102E500012972CC0909325048093240427C0211539
:102E6000310531F04217530718F0A901DB0101C009
:102E7000EF019A01BD01DF010280F381E02DD7CF80
:102E800021153105F9F0281B390B2430310580F468
:102E90008A819B816115710521F0FB0193838283F7
:102EA00004C09093250480932404FE01329644C00C
:102EB000FE01E20FF31F8193919322503109398370
:102EC00028833AC02091220430912304232B41F41B
:102ED00020910201309103013093230420932204B6
:102EE00020910001309101012115310541F42DB7E8
:102EF0003EB74091040150910501241B350BE09130
:102F00002204F0912304E217F307A0F42E1B3F0BD9
:102F10002817390778F0AC014E5F5F4F241735074B
:102F200048F04E0F5F1F5093230440932204819377
:102F3000919302C0E0E0F0E0CF01DF91CF910895DE
:102F4000CF93DF93009709F487C0FC013297138277
:102F50001282C0912404D0912504209781F420810D
:102F60003181280F391F8091220490912304821708
:102F7000930779F5F0932304E09322046DC0DE01FA
:102F800020E030E0AE17BF0750F412964D915C91EF
:102F900013979D014115510509F1DA01F3CFB38370
:102FA000A28340815181840F951F8A179B0771F47A
:102FB0008D919C911197840F951F02969183808328
:102FC00012968D919C9113979383828321153105DD
:102FD00029F4F0932504E09324043EC0D90113960C
:102FE000FC93EE9312974D915D91A40FB51FEA17D4
:102FF000FB0779F480819181840F951F0296D90196
:1030000011969C938E938281938113969C938E93B9
:103010001297E0E0F0E08A819B81009719F0FE01B1
:10302000EC01F9CFCE01029628813981820F931FDE
:1030300020912204309123042817390769F430972E
:1030400029F4109225041092240402C013821282E3
:10305000D0932304C0932204DF91CF910895A0E080
:10306000B0E0E5E3F8E10C94CB1AFE0135966191EE
:103070007191AF0180912804909129040E94431816
:10308000E2E00C94E71AACE0B0E0E9E4F8E10C947B
:10309000BB1A7C016B018A01FC01178216828381B5
:1030A00081FFBDC1CE0101964C01F7019381F6016C
:1030B00093FD859193FF81916F01882309F4ABC142
:1030C000853239F493FD859193FF81916F018532AB
:1030D00029F4B70190E00E942B1AE7CF512C312C34
:1030E00020E02032A0F48B3269F030F4803259F0C5
:1030F000833269F420612CC08D3239F0803339F489
:10310000216026C02260246023C0286021C027FDE2
:1031100027C030ED380F3A3078F426FF06C0FAE0C9
:103120005F9E300D1124532E13C08AE0389E300D5F
:103130001124332E20620CC08E3221F426FD6BC187
:10314000206406C08C3611F4206802C0883641F431
:10315000F60193FD859193FF81916F018111C1CF9C
:10316000982F9F7D9554933028F40C5F1F4FFFE3F9
:10317000F9830DC0833631F0833771F0833509F060
:103180005BC022C0F801808189830E5F1F4F4424F9
:103190004394512C540115C03801F2E06F0E711C9C
:1031A000F801A080B18026FF03C0652D70E002C049
:1031B0006FEF7FEFC5012C870E94201A2C0183013D
:1031C0002C852F77222E17C03801F2E06F0E711C6C
:1031D000F801A080B18026FF03C0652D70E002C019
:1031E0006FEF7FEFC5012C870E94151A2C012C85EB
:1031F0002068222E830123FC1BC0832D90E04816FB
:103200005906B0F4B70180E290E00E942B1A3A947C
:10321000F4CFF50127FC859127FE81915F01B7016D
:1032200090E00E942B1A31103A94F1E04F1A5108A5
:103230004114510471F7E5C0843611F0893639F52F
:10324000F80127FF07C060817181828193810C5F43
:103250001F4F08C060817181882777FD8095982F66
:103260000E5F1F4F2F76B22E97FF09C09095809565
:10327000709561957F4F8F4F9F4F2068B22E2AE047
:1032800030E0A4010E945D1AA82EA81844C085371A
:1032900029F42F7EB22E2AE030E025C0F22FF97FEC
:1032A000BF2E8F36C1F018F4883579F0B4C080375E
:1032B00019F0883721F0AFC02F2F2061B22EB4FE55
:1032C0000DC08B2D8460B82E09C024FF0AC09F2F2B
:1032D0009660B92E06C028E030E005C020E130E05D
:1032E00002C020E132E0F801B7FE07C060817181C1
:1032F000828193810C5F1F4F06C06081718180E0E5
:1033000090E00E5F1F4FA4010E945D1AA82EA8181E
:10331000FB2DFF77BF2EB6FE0BC02B2D2E7FA514E5
:1033200050F4B4FE0AC0B2FC08C02B2D2E7E05C09E
:103330007A2C2B2D03C07A2C01C0752C24FF0DC0D4
:10334000FE01EA0DF11D8081803311F4297E09C050
:1033500022FF06C07394739404C0822F867809F00C
:10336000739423FD13C020FF06C05A2C731418F465
:10337000530C5718732C731468F4B70180E290E073
:103380002C870E942B1A73942C85F5CF731410F49C
:10339000371801C0312C24FF12C0B70180E390E040
:1033A0002C870E942B1A2C8522FF17C021FF03C0F7
:1033B00088E590E002C088E790E0B7010CC0822F5A
:1033C000867859F021FD02C080E201C08BE227FD22
:1033D0008DE2B70190E00E942B1AA51438F4B701D2
:1033E00080E390E00E942B1A5A94F7CFAA94F4013C
:1033F000EA0DF11D8081B70190E00E942B1AA11007
:10340000F5CF332009F451CEB70180E290E00E945D
:103410002B1A3A94F6CFF7018681978102C08FEF7D
:103420009FEF2C96E2E10C94D71AFC0105906150B5
:1034300070400110D8F7809590958E0F9F1F0895CA
:10344000FC016150704001900110D8F78095909573
:103450008E0F9F1F08950F931F93CF93DF93182F05
:10346000092FEB018B8181FD03C08FEF9FEF20C0FF
:1034700082FF10C04E815F812C813D81421753072E
:103480007CF4E881F9819F012F5F3F4F39832883C6
:10349000108306C0E885F985812F0995892B29F7C6
:1034A0002E813F812F5F3F4F3F832E83812F902FAF
:1034B000DF91CF911F910F910895FA01AA2728302B
:1034C00051F1203181F1E8946F936E7F6E5F7F4FF1
:1034D0008F4F9F4FAF4FB1E03ED0B4E03CD0670F6D
:1034E000781F891F9A1FA11D680F791F8A1F911DC0
:1034F000A11D6A0F711D811D911DA11D20D009F410
:1035000068943F912AE0269F11243019305D319351
:10351000DEF6CF010895462F4770405D4193B3E03A
:103520000FD0C9F7F6CF462F4F70405D4A3318F0E1
:10353000495D31FD4052419302D0A9F7EACFB4E092
:10354000A6959795879577956795BA95C9F700974A
:103550006105710508959B01AC010A2E06945795EB
:10356000479537952795BA95C9F7620F731F841F42
:10357000951FA01D08952F923F924F925F926F92D8
:103580007F928F929F92AF92BF92CF92DF92EF92F3
:10359000FF920F931F93CF93DF93CDB7DEB7CA1B74
:1035A000DB0B0FB6F894DEBF0FBECDBF09942A889F
:1035B000398848885F846E847D848C849B84AA8447
:1035C000B984C884DF80EE80FD800C811B81AA81D4
:1035D000B981CE0FD11D0FB6F894DEBF0FBECDBF9F
:0835E000ED010895F894FFCFFE
:1035E80000002C042000500A5455581000250A0BDE
:0E35F8000064500076616C3A2025690A0000DC
:00000001FF
