:100000000C94D5010C94F2010C94F2010C94F201C1
:100010000C94F2010C94F2010C94F2010C94F20194
:100020000C94F2010C94F2010C94F2010C94F20184
:100030000C94F2010C94F2010C94F2010C94F20174
:100040000C94F2010C94F2010C94F2010C94F20164
:100050000C94F2010C94F2010C94F2010C94F20154
:100060000C94F2010C94F201485454502F312E306C
:100070002034303120556E617574686F72697A650D
:10008000640D0A436F6E74656E742D547970653A11
:1000900020746578742F68746D6C0D0A0D0A3C68C5
:1000A000313E34303120556E617574686F72697AF3
:1000B00065643C2F68313E00485454502F312E3037
:1000C00020323030204F4B0D0A436F6E74656E74D2
:1000D0002D547970653A20746578742F68746D6C4E
:1000E0000D0A0D0A3C68313E323030204F4B3C2F18
:1000F00068313E003D6F6B3D003C2F63656E74655B
:10010000723E3C68723E3C62723E76657273696F05
:100110006E20322E31302C207475786772617068D1
:100120006963732E6F72670A00223E0A3C62723E58
:100130003C696E70757420747970653D7375626D7D
:1001400069742076616C75653D22777269746520EB
:10015000746F204C4344223E3C2F666F726D3E0A02
:100160000071223E0A3C696E7075742073697A656D
:100170003D323020747970653D74657874206E610D
:100180006D653D6C313E0A3C62723E3C696E707535
:10019000742073697A653D323020747970653D74DE
:1001A000657874206E616D653D6C323E0A3C696E07
:1001B00070757420747970653D68696464656E203B
:1001C0006E616D653D636D642076616C75653D3271
:1001D0003E0A3C696E70757420747970653D68697B
:1001E0006464656E206E616D653D70772076616C2C
:1001F00075653D22003C68723E3C62723E3C666F13
:10020000726D204D4554484F443D676574206163CD
:1002100074696F6E3D220026636D643D31223E534A
:100220007769746368206F6E3C2F613E3C703E00BE
:1002300026636D643D30223E537769746368206F96
:1002400066663C2F613E3C703E00713F70773D001A
:10025000223E5B72656672657368207374617475A3
:10026000735D3C2F613E3C2F703E0A3C703E3C610A
:1002700020687265663D2200713F70773D00203C2A
:100280006120687265663D22004F4646003C666FFD
:100290006E7420636F6C6F723D222330304646309F
:1002A00030223E204F4E203C2F666F6E743E003C45
:1002B00063656E7465723E3C703E4F757470757404
:1002C0002069733A2000485454502F312E30203288
:1002D0003030204F4B0D0A436F6E74656E742D5491
:1002E0007970653A20746578742F68746D6C0D0AA6
:1002F0000D0A0071223E0A70617373776F72643A5F
:10030000203C696E7075742073697A653D3820747D
:100310007970653D2270617373776F726422206E0D
:10032000616D653D227077223E3C696E7075742068
:10033000747970653D7375626D69742076616C7552
:10034000653D226F6B223E3C2F666F726D3E3C2FE7
:1003500063656E7465723E003C63656E7465723EE3
:100360003C666F726D204D4554484F443D22676591
:10037000742220616374696F6E3D220048545450AA
:100380002F312E3020323030204F4B0D0A436F6E0C
:1003900074656E742D547970653A20746578742F85
:1003A00068746D6C0D0A0D0A000011241FBECFEF9A
:1003B000D8E0DEBFCDBF11E0A0E0B1E0E4E6F4E1BB
:1003C00002C005900D92A034B107D9F714E0A0E463
:1003D000B1E001C01D92A735B107E1F70E940E09F7
:1003E0000C94300A0C940000BC0180E091E00E9463
:1003F000190A21E0892B09F020E0822F0895CF937C
:10040000DF93FB0140E0DC012C91322F3F7DD1F0E6
:1004100041111AC03081231312C02181222311F00F
:1004200031960EC09C012F5F3F4F41E0DC011196D9
:100430008C918D3309F040E0FB01C90101C0FB0143
:100440000196E1CF4130A9F4DC01C0E4D1E0E0E065
:100450008D91982F9F7D39F0863229F0E63119F081
:100460008993EF5FF5CFF0E0E05CFE4F108281E012
:1004700001C080E0DF91CF91089590ED980F9A3000
:1004800060F09FE9980F963010F4875508959FEB20
:10049000980F963020F487530895892F089580E0AF
:1004A0000895A0E0B0E0E7E5F2E00C94ED09EC017E
:1004B0008C0188818823E1F08B32A1F0853299F498
:1004C0007E0182E0E80EF11C89810E943D02D82E57
:1004D0008A810E943D0290E1D99E90011124822BD5
:1004E000E70101C080E2F80181938F012196E1CFFD
:1004F000F8011082CDB7DEB7E7E00C94090ACF937C
:10050000DF93EC016AE271E00E94FF018823D1F1E0
:1005100080E491E00E94F4018823B1F16DE271E082
:10052000CE010E94FF01882389F180914001805310
:100530008A3060F5823069F581E00E94770861E3D6
:1005400071E0CE010E94FF01882341F080E491E038
:100550000E94510280E491E00E949F0864E371E0F0
:10056000CE010E94FF01882399F061E080E00E94A3
:10057000870880E491E00E94510280E491E00E94AB
:100580009F0806C08EEF05C08FEF03C08DEF01C03E
:1005900082E0DF91CF910895CF93DF93EC014CE798
:1005A00053E060E070E00E946C0548E553E0BC0158
:1005B000CE010E946C0547E051E0BC01CE010E94D3
:1005C0007E0543EF52E0BC01CE010E946C05DF9135
:1005D000CF9108951F93CF93DF93EC01162F46EC34
:1005E00052E060E070E00E946C054FEA52E0BC010E
:1005F000CE010E946C05BC01112319F04DE852E0B8
:1006000002C049E852E0CE010E946C054EE752E07C
:10061000BC01CE010E946C0547E051E0BC01CE0157
:100620000E947E0548E752E0BC01CE010E946C05A5
:1006300040E051E0BC01CE010E947E0540E552E061
:10064000BC01CE010E946C0547E051E0BC01CE0127
:100650000E947E054AE452E0BC01CE010E946C0576
:1006600040E051E0BC01CE010E947E05BC01112397
:1006700019F040E352E002C047E152E0CE010E948F
:100680006C0545EF51E0BC01CE010E946C0547E0CE
:1006900051E0BC01CE010E947E0541E651E0BC0163
:1006A000CE010E946C0540E051E0BC01CE010E94E9
:1006B0007E0549E251E0BC01CE010E946C0549EF84
:1006C00050E0BC01CE010E946C05DF91CF911F91DB
:1006D00008951F93CF93DF939B01413051F4AB01F9
:1006E0004850510960E070E04F5E5F4F6F4F7F4FA1
:1006F0000FC0423051F4AB014850510960E070E046
:100700004A5F5F4F6F4F7F4F03C040E050E0BA0138
:10071000D901FC01A230B10568F0C081D0E0DC2F26
:10072000CC271181C12B4C0F5D1F611D711D3296AD
:100730001297F0CFF901EE7FE80FF91F20FF0CC0F0
:10074000808190E0982F8827AA2797FDA095BA2F3F
:10075000480F591F6A1F7B1FCB01AA27BB27009791
:10076000A105B10519F066277727F2CFCA01809558
:100770009095DF91CF911F91089540932901FB013E
:10078000AAE4B4E021912D9324E0AE34B207D1F76E
:10079000FC01AEE4B4E081918D9384E0A435B80708
:1007A000D1F7089569327105A8F0FC01248528303D
:1007B00089F42585263071F4DC019696EAE4F4E0AC
:1007C0009D918191981306C084E0EE34F807C1F73B
:1007D00081E0089580E00895FC016A327105B0F06F
:1007E0008485883099F48585811110C0868585348B
:1007F00069F47E96AAE4B4E091918D91981306C0B5
:1008000084E0AE34B807C1F781E0089580E0089530
:10081000CF93DF93EEE4F4E0DC0116962C91EC012B
:100820002993CE0121912D93D4E0E435FD07B1F752
:10083000DF91CF910895CF93DF93EC01188E198E3D
:1008400080E48C8B1D8A8E8B40E064E170E0CE01E9
:100850000E960E946903988F898FDF91CF9108953A
:10086000CF93DF93EC016E96EAE4F4E0DC015A9654
:100870002C91299321912D9324E0EE34F207C1F7B6
:100880000E941B04DF91CF910895CF93DF93FC0169
:1008900082A184A312A283A185A38091290183A3AD
:1008A000DF019A96EF01AE96CF0186963E91630FD7
:1008B000711D3A916883222311F03C9301C01C9270
:1008C000672F7727A817B90789F7211109C016A242
:1008D00017A28091280180A711A68E5F809328011E
:1008E00012AA13AA442351F082E086AB84E087ABBE
:1008F00085E080AF80E881AF80E601C080E586A713
:10090000DF91CF910895CF93DF93EC010E9408040B
:100910001C8A82E08D8BCE0180964EE454E0DE018D
:1009200056962C91FC012193CF01FA012191AF0140
:100930002D93F4E044355F07A1F7CE0186964AE493
:1009400054E0DE015C962C91FC012193CF01FA0169
:100950002191AF012D93F4E04E345F07A1F7BE0162
:100960008AE290E00E946807DF91CF9108950F938B
:100970001F93CF93DF93EC018B010E940804CE01FB
:100980000E9430041AA29CA1983F18F08DA18F5F9D
:100990008DA3985F9CA3BE01C8010E946807DF91E8
:1009A000CF911F910F910895A0E0B0E0EAEDF4E03F
:1009B0000C94ED09EC01162FF72E042FE22ED32E06
:1009C0000E9408040D3D08F00CED188A8CE1800FA0
:1009D000898BCE010E943004DCA2EDA21EA288E029
:1009E000800F8FA318A619A6912FDE019A96E12FEA
:1009F000FF2D8E2F891B801718F481918D93F9CFCD
:100A000010E0B801605F7F4F41E0CE014A960E943E
:100A1000690398A789A7BE01C8018A960E94680742
:100A2000CDB7DEB7E7E00C94090ACF93DF93EC0172
:100A30000E940804188A8CE2898BCE010E9430043F
:100A400082E18FA720E041E061E070E0CE010E94EA
:100A5000450442E060E270E0CE014A960E946903DC
:100A60009AAB8BABBE018AE390E00E946807DF91EE
:100A7000CF9108958091460490914704892B31F0DD
:100A800080914804909149048296089580E090E016
:100A90000895FC01208930E0322F22278189282BFC
:100AA0002451310986A582958F7044E0849FC0014E
:100AB00011249093490480934804281B390B121683
:100AC00013062CF4309347042093460408951092A3
:100AD00047041092460408959C01CB01461B570B16
:100AE000FA01E80FF91FE491EE2339F0D901A80FBC
:100AF000B91FD696EC930196F3CF0895FA01219190
:100B0000AF01222339F0FC01E60FF71F26AB6F5F20
:100B10007F4FF4CFCB010895CF93DF93EC010E9478
:100B2000080480E18FA7609146047091470421E09A
:100B300040E06115710511F461E070E0CE010E94A2
:100B40004504188A88E2898BCE010E94300442E075
:100B50006CE170E0CE014A960E9469039AAB8BABC0
:100B6000BE0186E390E00E946807DF91CF9108956F
:100B70000F931F93CF93DF93EC018B0189E18FA734
:100B8000CB018896988B898BCE010E941B041AAAF0
:100B90001BAAB801645E7F4F42E0CE014A960E94D4
:100BA00069039AAB8BABBE01C801C6960E94680769
:100BB000DF91CF911F910F9108952A98962F9F71E1
:100BC000982B9EBD0DB407FEFDCF1EBC0DB407FED5
:100BD000FDCF67FD03C02A9A8EB508951EBC0DB4E3
:100BE00007FEFDCFF8CF2A986F71682B6EBD0DB44C
:100BF00007FEFDCF4EBD0DB407FEFDCF2A9A089526
:100C0000FB012A982AE32EBD0DB407FEFDCF8E0FFF
:100C10009F1FE817F90739F01EBC0DB407FEFDCF82
:100C20002EB52193F6CF10822A9A08952A982AE7A2
:100C30002EBD0DB407FEFDCF860F971F68177907ED
:100C400041F0FB012191BF012EBD0DB407FEFDCF88
:100C5000F5CF2A9A08951F93CF93DF93182F10761C
:100C6000C12FD0E02091560430E0C217D30789F09D
:100C700043E06FE180EA0E94F305AE0185E05595FF
:100C800047958A95E1F76FE180E80E94F30510939C
:100C90005604DF91CF911F910895A1E0B0E0E3E504
:100CA000F6E00C94F209682F69830E942B06698193
:100CB00080E00E94DD052196E2E00C940E0AA1E09E
:100CC000B0E0E5E6F6E00C94F109182F69830E9484
:100CD0002B064981612F80E40E94F3052196E3E011
:100CE0000C940D0A682F84ED0E945F0661E082ED8E
:100CF0000E945F068EE38A95F1F700C08AEE0E949B
:100D00004D0680FDFBCF60E082ED0E945F0689ED1D
:100D10000E944D0690E00895A1E0B0E0E2E9F6E01F
:100D20000C94F109162F682F84ED79830E945F06D9
:100D3000612F86ED0E945F067981672F87ED0E9403
:100D40005F068AEE0E944D0680FF05C08EE38A95FD
:100D5000F1F700C0F6CF2196E3E00C940D0A682F5E
:100D6000677085E70E945F060895CF93DF93EC01DB
:100D7000229A2A9A84B1886284B924982B982D9853
:100D800080E58CBD8DB581608DBD4FEF60E08FEF4C
:100D90000E94F3058DEC8A95F1F71092550410929C
:100DA000540460E088E00E945F0660E089E00E94F1
:100DB0005F0660E08CE00E945F0660E08DE00E94CC
:100DC0005F066EEF8AE00E945F0669E18BE00E9499
:100DD0005F066FEF84E00E945F0669E185E00E9494
:100DE0005F066FEF86E00E945F066FE187E00E947A
:100DF0005F0660EB88E30E945F066FE388E20E9473
:100E00005F0660E389E20E945F0669EF80E30E946B
:100E10005F0667EF81E30E945F066DE080EC0E9451
:100E20005F0660E081EC0E945F0642E362EC80E8CE
:100E30000E94F30562E186EC0E945F066CE087EC9D
:100E40000E945F0662E184EC0E945F066CED8AEC12
:100E50000E945F0665E08BEC0E945F06688184EE6D
:100E60000E945F06698185EE0E945F066A8182EEBC
:100E70000E945F066B8183EE0E945F066C8180EEAC
:100E80000E945F066D8181EE0E945F0660E071E066
:100E900080E10E948C068FE10E942B0640EC6BE102
:100EA00080E80E94F30544E06FE180E80E94F305CA
:100EB000DF91CF91089582E70E944D06089581E168
:100EC0000E94720621E0892B09F420E0822F089508
:100ED0000F931F93CF93DF93EC018B016FE180E0C1
:100EE0000E94DD0583FF10C08CE10E944D0681FF4A
:100EF000F5CF40E86FE180E80E94F30540E86FE13C
:100F000080EA0E94F305EACF6FEF82E00E945F065D
:100F100069E183E00E945F066C2F615086E00E94C9
:100F20005F06CE018150964E692F87E00E945F06D2
:100F300040E060E08AE70E94F305B801CE010E941C
:100F4000160648E06FE180E80E94F305DF91CF913B
:100F50001F910F910895A0E0B0E0E1EBF7E00C9451
:100F6000E9097C016B0189E30E944D06882309F49D
:100F700068C060915404C091550480E00E945F06EF
:100F80006C2F81E00E945F0660E08AE30E94DD052D
:100F9000082F60E08AE30E94DD0510E0182B109313
:100FA00055040093540460E08AE30E94DD05C82FD5
:100FB00060E08AE30E94DD05982E60E08AE30E94EB
:100FC000DD05A82EB12C60E08AE30E94DD05A7FEB6
:100FD0000FC0970121503109D0E0D92924972C174F
:100FE0003D0708F4E901B601CE010E94000602C0E7
:100FF000C0E0D0E0602F8CE00E945F06612F8DE0A2
:101000000E945F06780181E0E81AF1088FEFE81688
:1010100089E1F80630F06EEF8CE00E945F0669E12E
:1010200006C06FEF600F8CE00E945F066F2D8DE0B1
:101030000E945F0640E46EE180E80E94F305CE0165
:1010400002C080E090E0CDB7DEB7EBE00C94050A7B
:101050005B9A89E28A95F1F700C05B9888E08A95EF
:10106000F1F70000089587FF02C05F9A01C05F9802
:1010700086FF02C05E9A01C05E9885FF02C05D9A3D
:1010800001C05D9884FF02C05C9A08955C98089541
:10109000CF93DF93C82FD62F579A569A559A549AC2
:1010A0000E943308DD2311F05A9A01C05A980E9419
:1010B0002808C3FF02C05F9A01C05F98C2FF02C048
:1010C0005E9A01C05E98C1FF02C05D9A01C05D9842
:1010D000C0FF02C05C9A01C05C98DD2311F05A9AEF
:1010E00001C05A980E942808DF91CF91089599E293
:1010F0009A95F1F700C060E00E94480889E28A955D
:10110000F1F700C083E090E00E94030908956111A7
:1011100002C0805801C080540E947708089599E267
:101120009A95F1F700C061E00E94480889E28A952B
:10113000F1F700C083E090E00E9403090895CF9387
:10114000DF93EC018991882319F00E948F08FACF70
:10115000DF91CF910895CF93DF93FC018491EF014C
:101160002196882321F00E948F08FE01F7CFDF919E
:10117000CF910895CF93C82F579A569A559A549A5B
:10118000529A539A8EE090E00E94030980E30E94F5
:1011900033080E94280884E090E00E94030980E35D
:1011A0000E9433080E94280884E090E00E9403090E
:1011B00080E30E9433080E94280884E090E00E94A7
:1011C000030980E20E9433080E94280884E090E02E
:1011D0000E94030988E20E94770888E00E9477084D
:1011E00081E00E94770886E00E9477088C2F0E9499
:1011F000770889E28A95F1F700C083E090E00E94C9
:101200000309CF910895009741F0E7EBFBE0319798
:10121000F1F700C000000197F6CF089580E88093B1
:1012200061001092610082E38A95F1F7209A219A79
:10123000529882E291E00E94B50682E00E94AF06D9
:1012400082E38A95F1F7209A289A519A599866E78D
:1012500074E084E10E948C0682E38A95F1F7289875
:101260008CE00E94BA0881E00E94770884EF90E049
:101270000E94AB0840E56EE171E082E291E00E94DD
:10128000BD0311E067E571E08EEE92E00E94AB07CE
:10129000EC010097B9F3BC0187E591E00E94D2030D
:1012A000882329F087E591E00E948304EBCFBE01FB
:1012B00087E591E00E94EC03882321F3112319F0C4
:1012C000289A10E002C0289811E080916E018130C8
:1012D00051F4809179018830A9F6BE0187E591E04B
:1012E0000E94B704CFCF863069F680917B018111CF
:1012F000C9CF80917C01803529F68091860181FFDC
:1013000005C087E591E00E941505BCCF84FFBACFE8
:1013100087E591E00E9449050E943A05EC0100979B
:1013200049F48091860180FFADCF87E591E00E946E
:101330008C05A8CF44E050E0BC01695A7E4F87E39A
:1013400091E00E94220A892B19F048EB50E014C06A
:1013500042E050E0BE01655A7E4F8CE391E00E946E
:10136000220A892B91F0CE01845A9E4F0E947F025F
:101370008F3F49F448E650E060E070E087E591E097
:101380000E946C0514C08E3F29F487E591E00E940D
:10139000CC020DC0813011F4599A03C0811101C0F3
:1013A00059986BB1617087E591E00E94EA02EC0107
:1013B00087E591E00E948C05BE0187E591E00E94DF
:1013C000B80560CF2F923F924F925F926F927F92BB
:1013D0008F929F92AF92BF92CF92DF92EF92FF9245
:1013E0000F931F93CF93DF93CDB7DEB7CA1BDB0BF1
:1013F0000FB6F894DEBF0FBECDBF09942A88398896
:1014000048885F846E847D848C849B84AA84B9849C
:10141000C884DF80EE80FD800C811B81AA81B981A8
:10142000CE0FD11D0FB6F894DEBF0FBECDBFED01BC
:101430000895FB01DC018D91019080190110D9F311
:10144000990B0895FB01DC014150504030F08D9123
:101450000190801919F40020B9F7881B990B0895A1
:04146000F894FFCF2E
:1014640073656372657400687474703A2F2F313930
:10147400322E3136382E3235342E32332F00C0A876
:10148400FE175455581000250A50707700636D6498
:10149400006C31006C320047455420002F200000BE
:00000001FF
