:100000000C9434000C9451000C9451000C94510049
:100010000C9451000C9451000C9451000C9451001C
:100020000C9451000C9451000C9451000C9451000C
:100030000C9451000C9451000C9451000C945100FC
:100040000C9451000C9451000C9451000C945100EC
:100050000C9451000C9451000C9451000C945100DC
:100060000C9451000C94510011241FBECFEFD8E026
:10007000DEBFCDBF11E0A0E0B1E0E0E1FCE002C0F6
:1000800005900D92AC30B107D9F712E0ACE0B1E0C9
:1000900001C01D92A831B107E1F70E9412050C942E
:1000A00006060C9400002A98962F9F71982B9EBDEF
:1000B0000DB407FEFDCF1EBC0DB407FEFDCF67FDDE
:1000C00003C02A9A8EB508951EBC0DB407FEFDCF5D
:1000D000F8CF2A986F71682B6EBD0DB407FEFDCF67
:1000E0004EBD0DB407FEFDCF2A9A0895FB012A9854
:1000F0002AE32EBD0DB407FEFDCF8E0F9F1FE8171C
:10010000F90739F01EBC0DB407FEFDCF2EB52193C3
:10011000F6CF10822A9A08952A982AE72EBD0DB4A8
:1001200007FEFDCF860F971F6817790741F0FB0187
:100130002191BF012EBD0DB407FEFDCFF5CF2A9A48
:1001400008951F93CF93DF93182F1076C12FD0E01F
:100150002091090230E0C217D30789F043E06FE134
:1001600080EA0E946900AE0185E0559547958A9521
:10017000E1F76FE180E80E94690010930902DF91C6
:10018000CF911F910895A1E0B0E0E9ECF0E00C946C
:10019000DF05682F69830E94A100698180E00E94C9
:1001A00053002196E2E00C94FB05A1E0B0E0EBEDFA
:1001B000F0E00C94DE05182F69830E94A1004981AC
:1001C000612F80E40E9469002196E3E00C94FA0517
:1001D000682F84ED0E94D50061E082ED0E94D50079
:1001E0008EE38A95F1F700C08AEE0E94C30080FD7D
:1001F000FBCF60E082ED0E94D50089ED0E94C30034
:1002000090E00895A1E0B0E0E8E0F1E00C94DE05B4
:10021000162F682F84ED79830E94D500612F86ED1B
:100220000E94D5007981672F87ED0E94D5008AEE64
:100230000E94C30080FF05C08EE38A95F1F700C0DD
:10024000F6CF2196E3E00C94FA05682F677085E7F6
:100250000E94D5000895CF93DF93EC01229A2A9A49
:1002600084B1886284B924982B982D9880E58CBD40
:100270008DB581608DBD4FEF60E08FEF0E9469000A
:100280008DEC8A95F1F7109208021092070260E057
:1002900088E00E94D50060E089E00E94D50060E01F
:1002A0008CE00E94D50060E08DE00E94D5006EEFEA
:1002B0008AE00E94D50069E18BE00E94D5006FEFD3
:1002C00084E00E94D50069E185E00E94D5006FEFCF
:1002D00086E00E94D5006FE187E00E94D50060EBC8
:1002E00088E30E94D5006FE388E20E94D50060E3B6
:1002F00089E20E94D50069EF80E30E94D50067EF94
:1003000081E30E94D5006DE080EC0E94D50060E0A2
:1003100081EC0E94D50042E362EC80E80E94690013
:1003200062E186EC0E94D5006CE087EC0E94D5006B
:1003300062E184EC0E94D5006CED8AEC0E94D5004D
:1003400065E08BEC0E94D500688184EE0E94D500A8
:10035000698185EE0E94D5006A8182EE0E94D500F7
:100360006B8183EE0E94D5006C8180EE0E94D500E7
:100370006D8181EE0E94D50060E071E080E10E9415
:1003800002018FE10E94A10040EC6BE180E80E9435
:10039000690044E06FE180E80E946900DF91CF913D
:1003A000089582E70E94C300089581E10E94E80059
:1003B00021E0892B09F420E0822F08950F931F93E9
:1003C000CF93DF93EC018B016FE180E00E9453003B
:1003D00083FF10C08CE10E94C30081FFF5CF40E88D
:1003E0006FE180E80E94690040E86FE180EA0E94C6
:1003F0006900EACF6FEF82E00E94D50069E183E0F7
:100400000E94D5006C2F615086E00E94D500CE017D
:100410008150964E692F87E00E94D50040E060E051
:100420008AE70E946900B801CE010E948C0048E072
:100430006FE180E80E946900DF91CF911F910F91D9
:100440000895A0E0B0E0E7E2F2E00C94D6057C016C
:100450006B0189E30E94C300882309F468C060919E
:100460000702C091080280E00E94D5006C2F81E055
:100470000E94D50060E08AE30E945300082F60E0EC
:100480008AE30E94530010E0182B10930802009397
:10049000070260E08AE30E945300C82F60E08AE30D
:1004A0000E945300982E60E08AE30E945300A82E19
:1004B000B12C60E08AE30E945300A7FE0FC09701B1
:1004C00021503109D0E0D92924972C173D0708F491
:1004D000E901B601CE010E94760002C0C0E0D0E082
:1004E000602F8CE00E94D500612F8DE00E94D50026
:1004F000780181E0E81AF1088FEFE81689E1F80643
:1005000030F06EEF8CE00E94D50069E106C06FEF1D
:10051000600F8CE00E94D5006F2D8DE00E94D50009
:1005200040E46EE180E80E946900CE0102C080E0F4
:1005300090E0CDB7DEB7EBE00C94F2051F93CF93BC
:10054000DF939B01413051F4AB014850510960E009
:1005500070E04F5E5F4F6F4F7F4F0FC0423051F4DE
:10056000AB014850510960E070E04A5F5F4F6F4F48
:100570007F4F03C040E050E0BA01D901FC01A23036
:10058000B10568F0C081D0E0DC2FCC271181C12BF0
:100590004C0F5D1F611D711D32961297F0CFF9014E
:1005A000EE7FE80FF91F20FF0CC0808190E0982FAC
:1005B0008827AA2797FDA095BA2F480F591F6A1FB1
:1005C0007B1FCB01AA27BB270097A105B10519F016
:1005D00066277727F2CFCA0180959095DF91CF915A
:1005E0001F91089540930B01FB01AEE0B2E0219111
:1005F0002D9322E0A231B207D1F7FC01A2E1B2E0D3
:1006000081918D9382E0A831B807D1F708956932BE
:100610007105A8F0FC012485283089F42585263051
:1006200071F4DC019696EEE0F2E09D9181919813D1
:1006300006C082E0E231F807C1F781E0089580E06A
:100640000895FC016A327105B0F08485883099F410
:100650008585811110C08685853469F47E96AEE06B
:10066000B2E091918D91981306C082E0A231B80753
:10067000C1F781E0089580E00895CF93DF93E2E130
:10068000F2E0DC0116962C91EC012993CE01219128
:100690002D93D2E0E831FD07B1F7DF91CF910895B6
:1006A000CF93DF93EC01188E198E80E48C8B1D8A1A
:1006B0008E8B40E064E170E0CE010E960E949E02B7
:1006C000988F898FDF91CF910895CF93DF93EC01BD
:1006D0006E96EEE0F2E0DC015A962C91299321917E
:1006E0002D9322E0E231F207C1F70E945003DF911F
:1006F000CF910895CF93DF93FC0182A184A312A22E
:1007000083A185A380910B0183A3DF019A96EF015A
:10071000AE96CF0186963E91630F711D3A91688324
:10072000222311F03C9301C01C92672F7727A81752
:10073000B90789F7211109C016A217A280910A01F1
:1007400080A711A68E5F80930A0112AA13AA4423E0
:1007500051F082E086AB84E087AB85E080AF80E833
:1007600081AF80E601C080E586A7DF91CF91089533
:10077000CF93DF93EC010E943D031C8A82E08D8BB6
:10078000CE01809642E152E0DE0156962C91FC01AA
:100790002193CF01FA012191AF012D93F2E048316D
:1007A0005F07A1F7CE0186964EE052E0DE015C962F
:1007B0002C91FC012193CF01FA012191AF012D93DE
:1007C000F2E042315F07A1F7BE018AE290E00E94A9
:1007D000DE01DF91CF9108950F931F93CF93DF93A5
:1007E000EC018B010E943D03CE010E9465031AA219
:1007F0009CA1983F18F08DA18F5F8DA3985F9CA35B
:10080000BE01C8010E94DE01DF91CF911F910F91BF
:100810000895A0E0B0E0EFE0F4E00C94DA05EC011C
:10082000162FF72E042FE22ED32E0E943D030D3DEE
:1008300008F00CED188A8CE1800F898BCE010E94A4
:100840006503DCA2EDA21EA288E0800F8FA318A68C
:1008500019A6912FDE019A96E12FFF2D8E2F891B6D
:10086000801718F481918D93F9CF10E0B801605F83
:100870007F4F41E0CE014A960E949E0298A789A729
:10088000BE01C8018A960E94DE01CDB7DEB7E7E05F
:100890000C94F605CF93DF93EC010E943D03188A78
:1008A0008CE2898BCE010E94650382E18FA720E054
:1008B00041E061E070E0CE010E947A0342E060E234
:1008C00070E0CE014A960E949E029AAB8BABBE01AD
:1008D0008AE390E00E94DE01DF91CF91089580913C
:1008E0000A0290910B02892B31F080910C029091B9
:1008F0000D028296089580E090E00895FC01208921
:1009000030E0322F22278189282B2451310986A5F6
:1009100082958F7044E0849FC001112490930D0252
:1009200080930C02281B390B121613062CF43093FB
:100930000B0220930A02089510920B0210920A02F1
:1009400008959C01CB01461B570BFA01E80FF91FD4
:10095000E491EE2339F0D901A80FB91FD696EC9394
:100960000196F3CF0895FA012191AF01222339F0C6
:10097000FC01E60FF71F26AB6F5F7F4FF4CFCB0173
:100980000895CF93DF93EC010E943D0380E18FA790
:1009900060910A0270910B0221E040E0611571053F
:1009A00011F461E070E0CE010E947A03188A88E2B7
:1009B000898BCE010E94650342E06CE170E0CE01BC
:1009C0004A960E949E029AAB8BABBE0186E390E0F2
:1009D0000E94DE01DF91CF9108950F931F93CF9373
:1009E000DF93EC018B0189E18FA7CB018896988B6F
:1009F000898BCE010E9450031AAA1BAAB801645E1B
:100A00007F4F42E0CE014A960E949E029AAB8BAB8A
:100A1000BE01C801C6960E94DE01DF91CF911F91F1
:100A20000F91089580E8809361001092610083E245
:100A300094EF0197F1F700C00000219A299A84E011
:100A400091E00E942B0182E00E94250181E19AE75A
:100A50000197F1F700C0000060E878E084E10E94AF
:100A6000020197E629E889E0915020408040E1F7B3
:100A700000C0000097E629E889E0915020408040BE
:100A8000E1F700C0000060E979E084E10E94020122
:100A900097E629E889E0915020408040E1F700C0C6
:100AA000000097E629E889E0915020408040E1F776
:100AB00000C0000060E878E084E10E94020197E64F
:100AC00029E889E0915020408040E1F700C0000013
:100AD00097E629E889E0915020408040E1F700C086
:100AE000000060E979E084E10E94020197E629E8CC
:100AF00089E0915020408040E1F700C0000097E677
:100B000029E889E0915020408040E1F700C00000D2
:100B100066E774E084E10E9402019FE820ED83E033
:100B2000915020408040E1F700C0000040E560E0C7
:100B300071E084E091E00E94F20210E06CE071E06C
:100B40008AEF90E00E942102EC010097B9F3BC010A
:100B50008CE091E00E940703882329F08CE091E06B
:100B60000E94B803EBCFBE018CE091E00E9421030C
:100B7000882321F3112319F0299A10E002C0299843
:100B800011E0809123018130C9F680912E018830D7
:100B9000A9F6BE018CE091E00E94EC03CFCF2F922A
:100BA0003F924F925F926F927F928F929F92AF92FD
:100BB000BF92CF92DF92EF92FF920F931F93CF934A
:100BC000DF93CDB7DEB7CA1BDB0B0FB6F894DEBFE1
:100BD0000FBECDBF09942A88398848885F846E8407
:100BE0007D848C849B84AA84B984C884DF80EE8051
:100BF000FD800C811B81AA81B981CE0FD11D0FB65A
:100C0000F894DEBF0FBECDBFED010895F894FFCF7D
:0C0C10000A0000195455581000250A5025
:00000001FF
