:100000000C948D000C94AA000C94AA000C94AA00E5
:100010000C94AA000C94AA000C94AA000C94AA00B8
:100020000C94AA000C94AA000C94AA000C94AA00A8
:100030000C94AA000C94AA000C94AA000C94AA0098
:100040000C94AA000C94AA000C94AA000C94AA0088
:100050000C94AA000C94AA000C94AA000C94AA0078
:100060000C94AA000C94AA00485454502F312E30FE
:1000700020323030204F4B0D0A436F6E74656E7422
:100080002D547970653A20746578742F68746D6C9E
:100090000D0A0D0A3C68313E323030204F4B3C2F68
:1000A00068313E003C2F63656E7465723E3C687239
:1000B0003E3C62723E747578677261706869637302
:1000C0002E6F72670A003C63656E7465723E3C7009
:1000D0003E454E4332384A36302073696C69636F4F
:1000E0006E207265762069733A204200485454505D
:1000F0002F312E3020323030204F4B0D0A436F6E9F
:1001000074656E742D547970653A20746578742F17
:1001100068746D6C0D0A0D0A000011241FBECFEF2C
:10012000D8E0DEBFCDBF11E0A0E0B1E0ECE2FEE040
:1001300002C005900D92A231B107D9F713E0A2E1F8
:10014000B1E001C01D92AA34B107E1F70E949A05FF
:100150000C9414070C940000A5E0B0E0E2EBF0E092
:100160000C948B068C014CEE50E060E070E00E9435
:10017000290546EC50E0BC01C8010E9429057C011C
:100180000E9459024AE050E0BE016F5F7F4F90E04D
:100190000E94CF06AE014F5F5F4FB701C8010E94BA
:1001A0003B0544EA50E0BC01C8010E9429052596A0
:1001B000E6E00C94A7062A98962F9F71982B9EBD77
:1001C0000DB407FEFDCF1EBC0DB407FEFDCF67FDCD
:1001D00003C02A9A8EB508951EBC0DB407FEFDCF4C
:1001E000F8CF2A986F71682B6EBD0DB407FEFDCF56
:1001F0004EBD0DB407FEFDCF2A9A0895FB012A9843
:100200002AE32EBD0DB407FEFDCF8E0F9F1FE8170A
:10021000F90739F01EBC0DB407FEFDCF2EB52193B2
:10022000F6CF10822A9A08952A982AE72EBD0DB497
:1002300007FEFDCF860F971F6817790741F0FB0176
:100240002191BF012EBD0DB407FEFDCFF5CF2A9A37
:1002500008951F93CF93DF93182F1076C12FD0E00E
:1002600020913B0330E0C217D30789F043E06FE1F0
:1002700080EA0E94F100AE0185E0559547958A9588
:10028000E1F76FE180E80E94F10010933B03DF91FA
:10029000CF911F910895A1E0B0E0E1E5F1E00C9469
:1002A0008F06682F69830E942901698180E00E947E
:1002B000DB002196E2E00C94AB06A1E0B0E0E3E6BF
:1002C000F1E00C948E06182F69830E942901498160
:1002D000612F80E40E94F1002196E3E00C94AA06CD
:1002E000682F84ED0E945D0161E082ED0E945D0156
:1002F0008EE38A95F1F700C08AEE0E944B0180FDE3
:10030000FBCF60E082ED0E945D0189ED0E944B0110
:1003100090E00895A1E0B0E0E0E9F1E00C948E06F1
:10032000162F682F84ED79830E945D01612F86ED81
:100330000E945D017981672F87ED0E945D018AEE41
:100340000E944B0180FF05C08EE38A95F1F700C043
:10035000F6CF2196E3E00C94AA06682F677085E734
:100360000E945D010895CF93DF93EC01229A2A9AAF
:1003700084B1886284B924982B982D9880E58CBD2F
:100380008DB581608DBD4FEF60E08FEF0E94F10071
:100390008DEC8A95F1F710923A031092390360E0E0
:1003A00088E00E945D0160E089E00E945D0160E0FC
:1003B0008CE00E945D0160E08DE00E945D016EEFC7
:1003C0008AE00E945D0169E18BE00E945D016FEFB0
:1003D00084E00E945D0169E185E00E945D016FEFAC
:1003E00086E00E945D016FE187E00E945D0160EBA5
:1003F00088E30E945D016FE388E20E945D0160E393
:1004000089E20E945D0169EF80E30E945D0167EF70
:1004100081E30E945D016DE080EC0E945D0160E07F
:1004200081EC0E945D0142E362EC80E80E94F100F1
:1004300062E186EC0E945D016CE087EC0E945D0148
:1004400062E184EC0E945D016CED8AEC0E945D012A
:1004500065E08BEC0E945D01688184EE0E945D0185
:10046000698185EE0E945D016A8182EE0E945D01D4
:100470006B8183EE0E945D016C8180EE0E945D01C4
:100480006D8181EE0E945D0160E071E080E10E947B
:100490008A018FE10E94290140EC6BE180E80E9413
:1004A000F10044E06FE180E80E94F100DF91CF911C
:1004B000089582E70E944B01089581E10E94700136
:1004C00021E0892B09F420E0822F08950F931F93D8
:1004D000CF93DF93EC018B016FE180E00E94DB00A2
:1004E00083FF10C08CE10E944B0181FFF5CF40E8F3
:1004F0006FE180E80E94F10040E86FE180EA0E942D
:10050000F100EACF6FEF82E00E945D0169E183E0D4
:100510000E945D016C2F615086E00E945D01CE015A
:100520008150964E692F87E00E945D0140E060E0B7
:100530008AE70E94F100B801CE010E94140148E050
:100540006FE180E80E94F100DF91CF911F910F9140
:100550000895A0E0B0E0EFEAF2E00C9486067C019A
:100560006B0189E30E944B01882309F468C0609104
:100570003903C0913A0380E00E945D016C2F81E055
:100580000E945D0160E08AE30E94DB00082F60E0CA
:100590008AE30E94DB0010E0182B10933A030093CB
:1005A000390360E08AE30E94DB00C82F60E08AE341
:1005B0000E94DB00982E60E08AE30E94DB00A82EF8
:1005C000B12C60E08AE30E94DB00A7FE0FC0970118
:1005D00021503109D0E0D92924972C173D0708F480
:1005E000E901B601CE010E94FE0002C0C0E0D0E0E9
:1005F000602F8CE00E945D01612F8DE00E945D0103
:10060000780181E0E81AF1088FEFE81689E1F80631
:1006100030F06EEF8CE00E945D0169E106C06FEF83
:10062000600F8CE00E945D016F2D8DE00E945D01E6
:1006300040E46EE180E80E94F100CE0102C080E05B
:1006400090E0CDB7DEB7EBE00C94A2061F93CF93FA
:10065000DF939B01413051F4AB014850510960E0F8
:1006600070E04F5E5F4F6F4F7F4F0FC0423051F4CD
:10067000AB014850510960E070E04A5F5F4F6F4F37
:100680007F4F03C040E050E0BA01D901FC01A23025
:10069000B10568F0C081D0E0DC2FCC271181C12BDF
:1006A0004C0F5D1F611D711D32961297F0CFF9013D
:1006B000EE7FE80FF91F20FF0CC0808190E0982F9B
:1006C0008827AA2797FDA095BA2F480F591F6A1FA0
:1006D0007B1FCB01AA27BB270097A105B10519F005
:1006E00066277727F2CFCA0180959095DF91CF9149
:1006F0001F91089540930B01FB01A0E4B3E0219109
:100700002D9323E0A434B207D1F7FC01A4E4B3E0B5
:1007100081918D9383E0AA34B807D1F708956932A7
:100720007105A8F0FC012485283089F42585263040
:1007300071F4DC019696E0E4F3E09D9181919813C9
:1007400006C083E0E434F807C1F781E0089580E053
:100750000895FC016A327105B0F08485883099F4FF
:100760008585811110C08685853469F47E96A0E464
:10077000B3E091918D91981306C083E0A434B8073B
:10078000C1F781E0089580E00895CF93DF93E4E41A
:10079000F3E0DC0116962C91EC012993CE01219116
:1007A0002D93D3E0EA34FD07B1F7DF91CF9108959F
:1007B000CF93DF93EC01188E198E80E48C8B1D8A09
:1007C0008E8B40E064E170E0CE010E960E9426031D
:1007D000988F898FDF91CF910895CF93DF93EC01AC
:1007E0006E96E0E4F3E0DC015A962C912993219176
:1007F0002D9323E0E434F207C1F70E94D803DF9180
:10080000CF910895CF93DF93FC0182A184A312A21C
:1008100083A185A380910B0183A3DF019A96EF0149
:10082000AE96CF0186963E91630F711D3A91688313
:10083000222311F03C9301C01C92672F7727A81741
:10084000B90789F7211109C016A217A280910A01E0
:1008500080A711A68E5F80930A0112AA13AA4423CF
:1008600051F082E086AB84E087AB85E080AF80E822
:1008700081AF80E601C080E586A7DF91CF91089522
:10088000CF93DF93EC010E94C5031C8A82E08D8B1D
:10089000CE01809644E453E0DE0156962C91FC0193
:1008A0002193CF01FA012191AF012D93F3E04A3456
:1008B0005F07A1F7CE01869640E453E0DE015C9627
:1008C0002C91FC012193CF01FA012191AF012D93CD
:1008D000F3E044345F07A1F7BE018AE290E00E9492
:1008E0006602DF91CF9108950F931F93CF93DF930B
:1008F000EC018B010E94C503CE010E94ED031AA2F8
:100900009CA1983F18F08DA18F5F8DA3985F9CA349
:10091000BE01C8010E946602DF91CF911F910F9125
:100920000895A0E0B0E0E7E9F4E00C948A06EC0159
:10093000162FF72E042FE22ED32E0E94C5030D3D55
:1009400008F00CED188A8CE1800F898BCE010E9493
:10095000ED03DCA2EDA21EA288E0800F8FA318A6F3
:1009600019A6912FDE019A96E12FFF2D8E2F891B5C
:10097000801718F481918D93F9CF10E0B801605F72
:100980007F4F41E0CE014A960E94260398A789A78F
:10099000BE01C8018A960E946602CDB7DEB7E7E0C5
:1009A0000C94A606CF93DF93EC010E94C503188A2E
:1009B0008CE2898BCE010E94ED0382E18FA720E0BB
:1009C00041E061E070E0CE010E94020442E060E29A
:1009D00070E0CE014A960E9426039AAB8BABBE0113
:1009E0008AE390E00E946602DF91CF9108958091A2
:1009F0003C0390913D03892B31F080913E0390910F
:100A00003F038296089580E090E00895FC012089DC
:100A100030E0322F22278189282B2451310986A5E5
:100A200082958F7044E0849FC001112490933F030E
:100A300080933E03281B390B121613062CF43093B7
:100A40003D0320933C03089510923D0310923C0314
:100A500008959C01CB01461B570BFA01E80FF91FC3
:100A6000E491EE2339F0D901A80FB91FD696EC9383
:100A70000196F3CF0895FA012191AF01222339F0B5
:100A8000FC01E60FF71F26AB6F5F7F4FF4CFCB0162
:100A90000895CF93DF93EC010E94C50380E18FA7F7
:100AA00060913C0370913D0321E040E061157105C8
:100AB00011F461E070E0CE010E940204188A88E21D
:100AC000898BCE010E94ED0342E06CE170E0CE0123
:100AD0004A960E9426039AAB8BABBE0186E390E058
:100AE0000E946602DF91CF9108950F931F93CF93D9
:100AF000DF93EC018B0189E18FA7CB018896988B5E
:100B0000898BCE010E94D8031AAA1BAAB801645E81
:100B10007F4F42E0CE014A960E9426039AAB8BABF0
:100B2000BE01C801C6960E946602DF91CF911F9157
:100B30000F910895A4E1B0E0E0EAF5E00C94880696
:100B400080E8809361001092610082E38A95F1F75A
:100B500084E091E00E94B30182E00E94AD0182E353
:100B60008A95F1F7219A299A66E774E084E10E9458
:100B70008A0182E38A95F1F7299840E560E071E007
:100B800084E091E00E947A03FF24F39485E6B82E76
:100B900092E7C92E2DE3D22E32E4E32E62E171E01A
:100BA00086E292E00E94A9028C010097B9F3BC0191
:100BB00082E191E00E948F03882329F082E191E095
:100BC0000E944004EBCFB80182E191E00E94A903AA
:100BD000882321F3FF2019F0299AF12C03C02998CA
:100BE000FF24F39480912901813051F480913401E4
:100BF0008830A1F6B80182E191E00E947404CECF62
:100C0000863009F04AC0809136018111C7CF8091AA
:100C10003701803519F68091410181FF05C082E1DD
:100C200091E00E94D204BACF84FFB8CF82E191E074
:100C30000E9406050E94F704009749F48091410143
:100C400080FFACCF82E191E00E944905A7CFBC01B3
:100C50006E5E7E4F44E050E08CE091E00E94B6066C
:100C6000892B49F048E650E060E070E082E191E0D5
:100C70000E94290507C00E945902682F82E191E075
:100C80000E94AC008C0182E191E00E944905B8010C
:100C900082E191E00E94750581CF813109F07ECF1C
:100CA00080913601843009F079CF80913701803B03
:100CB00009F074CF80913C01863709F06FCF8983AA
:100CC000BA82CB82DC82ED820E9459024AE050E077
:100CD000BE016A5F7F4F90E00E94CF066AE070E03D
:100CE000CE0101960E94C40620EB34E0482FBE01DD
:100CF0006F5F7F4F82E191E00E9491044FCF2F926E
:100D00003F924F925F926F927F928F929F92AF929B
:100D1000BF92CF92DF92EF92FF920F931F93CF93E8
:100D2000DF93CDB7DEB7CA1BDB0B0FB6F894DEBF7F
:100D30000FBECDBF09942A88398848885F846E84A5
:100D40007D848C849B84AA84B984C884DF80EE80EF
:100D5000FD800C811B81AA81B981CE0FD11D0FB6F8
:100D6000F894DEBF0FBECDBFED010895FB01DC019D
:100D70004150504030F08D910190801919F40020BD
:100D8000B9F7881B990B0895FC01615070400190E0
:100D90000110D8F7809590958E0F9F1F0895FB0145
:100DA0009F01E8944230C4F04532B4F44A3029F44B
:100DB00097FB1EF4909581959F4F642F77270E9493
:100DC0000007805D8A330CF0895D8193CB01009729
:100DD000A1F716F45DE251931082C9010C94F0065C
:100DE000DC01FC01672F71917723E1F7329704C092
:100DF0007C916D9370836291AE17BF07C8F308951D
:100E0000AA1BBB1B51E107C0AA1FBB1FA617B70730
:100E100010F0A61BB70B881F991F5A95A9F780954C
:0C0E20009095BC01CD010895F894FFCF1F
:100E2C000A0000195455581000250A504745542003
:020E3C000000B4
:00000001FF
