:100000000C9472000C948F000C948F000C948F0051
:100010000C948F000C948F000C948F000C948F0024
:100020000C948F000C948F000C948F000C948F0014
:100030000C948F000C948F000C948F000C948F0004
:100040000C948F000C948F000C948F000C948F00F4
:100050000C948F000C948F000C948F000C948F00E4
:100060000C948F000C948F00485454502F312E3034
:1000700020323030204F4B0D0A436F6E74656E7422
:100080002D547970653A20746578742F68746D6C9E
:100090000D0A0D0A3C703E4F4B2C20697420776F7F
:1000A000726B733C2F703E00485454502F312E30E9
:1000B00020323030204F4B0D0A436F6E74656E74E2
:1000C0002D547970653A20746578742F68746D6C5E
:1000D0000D0A0D0A3C68313E323030204F4B3C2F28
:1000E00068313E0011241FBECFEFD8E0DEBFCDBF88
:1000F00011E0A0E0B1E0E8E9FCE002C005900D925B
:10010000A831B107D9F712E0A8E1B1E001C01D9212
:10011000AC3EB107E1F70E9450050C944A060C94DE
:1001200000002A98962F9F71982B9EBD0DB407FE54
:10013000FDCF1EBC0DB407FEFDCF67FD03C02A9A9C
:100140008EB508951EBC0DB407FEFDCFF8CF2A98DA
:100150006F71682B6EBD0DB407FEFDCF4EBD0DB4A3
:1001600007FEFDCF2A9A0895FB012A982AE32EBDA7
:100170000DB407FEFDCF8E0F9F1FE817F90739F06A
:100180001EBC0DB407FEFDCF2EB52193F6CF108215
:100190002A9A08952A982AE72EBD0DB407FEFDCFAE
:1001A000860F971F6817790741F0FB012191BF0166
:1001B0002EBD0DB407FEFDCFF5CF2A9A08951F93EB
:1001C000CF93DF93182F1076C12FD0E02091DD025E
:1001D00030E0C217D30789F043E06FE180EA0E9464
:1001E000A700AE0185E0559547958A95E1F76FE147
:1001F00080E80E94A7001093DD02DF91CF911F914C
:100200000895A1E0B0E0E7E0F1E00C941506682F56
:1002100069830E94DF00698180E00E94910021963D
:10022000E2E00C943106A1E0B0E0E9E1F1E00C94E9
:100230001406182F69830E94DF004981612F80E432
:100240000E94A7002196E3E00C943006682F84ED0D
:100250000E94130161E082ED0E9413018EE38A95F2
:10026000F1F700C08AEE0E94010180FDFBCF60E043
:1002700082ED0E94130189ED0E94010190E0089532
:10028000A1E0B0E0E6E4F1E00C941406162F682F2C
:1002900084ED79830E941301612F86ED0E94130182
:1002A0007981672F87ED0E9413018AEE0E94010178
:1002B00080FF05C08EE38A95F1F700C0F6CF219646
:1002C000E3E00C943006682F677085E70E94130105
:1002D0000895CF93DF93EC01229A2A9A84B1886221
:1002E00084B924982B982D9880E58CBD8DB58160BC
:1002F0008DBD4FEF60E08FEF0E94A7008DEC8A95D7
:10030000F1F71092DC021092DB0260E088E00E94BC
:10031000130160E089E00E94130160E08CE00E941C
:10032000130160E08DE00E9413016EEF8AE00E94ED
:10033000130169E18BE00E9413016FEF84E00E94DA
:10034000130169E185E00E9413016FEF86E00E94CE
:1003500013016FE187E00E94130160EB88E30E94C4
:1003600013016FE388E20E94130160E389E20E94B7
:10037000130169EF80E30E94130167EF81E30E949C
:1003800013016DE080EC0E94130160E081EC0E949B
:10039000130142E362EC80E80E94A70062E186EC70
:1003A0000E9413016CE087EC0E94130162E184EC6F
:1003B0000E9413016CED8AEC0E94130165E08BEC46
:1003C0000E941301688184EE0E941301698185EE09
:1003D0000E9413016A8182EE0E9413016B8183EEF9
:1003E0000E9413016C8180EE0E9413016D8181EEE9
:1003F0000E94130160E071E080E10E9440018FE102
:100400000E94DF0040EC6BE180E80E94A70044E01E
:100410006FE180E80E94A700DF91CF91089582E705
:100420000E940101089581E10E94260121E0892BAB
:1004300009F420E0822F08950F931F93CF93DF9349
:10044000EC018B016FE180E00E94910083FF10C0FE
:100450008CE10E94010181FFF5CF40E86FE180E867
:100460000E94A70040E86FE180EA0E94A700EACF5F
:100470006FEF82E00E94130169E183E00E941301A3
:100480006C2F615086E00E941301CE018150964E80
:10049000692F87E00E94130140E060E08AE70E9434
:1004A000A700B801CE010E94CA0048E06FE180E8D1
:1004B0000E94A700DF91CF911F910F910895A0E0B6
:1004C000B0E0E5E6F2E00C940C067C016B0189E3F8
:1004D0000E940101882309F468C06091DB02C09189
:1004E000DC0280E00E9413016C2F81E00E94130166
:1004F00060E08AE30E949100082F60E08AE30E9496
:10050000910010E0182B1093DC020093DB0260E0F6
:100510008AE30E949100C82F60E08AE30E94910064
:10052000982E60E08AE30E949100A82EB12C60E032
:100530008AE30E949100A7FE0FC097012150310964
:10054000D0E0D92924972C173D0708F4E901B6011A
:10055000CE010E94B40002C0C0E0D0E0602F8CE069
:100560000E941301612F8DE00E941301780181E048
:10057000E81AF1088FEFE81689E1F80630F06EEF1F
:100580008CE00E94130169E106C06FEF600F8CE000
:100590000E9413016F2D8DE00E94130140E46EE173
:1005A00080E80E94A700CE0102C080E090E0CDB7B5
:1005B000DEB7EBE00C9428061F93CF93DF939B01EB
:1005C000413051F4AB014850510960E070E04F5E9A
:1005D0005F4F6F4F7F4F0FC0423051F4AB01485017
:1005E000510960E070E04A5F5F4F6F4F7F4F03C07B
:1005F00040E050E0BA01D901FC01A230B10568F039
:10060000C081D0E0DC2FCC271181C12B4C0F5D1FA6
:10061000611D711D32961297F0CFF901EE7FE80F40
:10062000F91F20FF0CC0808190E0982F8827AA270F
:1006300097FDA095BA2F480F591F6A1F7B1FCB014A
:10064000AA27BB270097A105B10519F066277727D0
:10065000F2CFCA0180959095DF91CF911F910895B7
:1006600040930B01FB01A2EEB2E021912D9322E019
:10067000A63EB207D1F7FC01A6EEB2E081918D93C0
:1006800082E0AC3EB807D1F7089569327105A8F051
:10069000FC012485283089F42585263071F4DC019D
:1006A0009696E2EEF2E09D918191981306C082E069
:1006B000E63EF807C1F781E0089580E00895FC0167
:1006C0006A327105B0F08485883099F4858581118E
:1006D00010C08685853469F47E96A2EEB2E09191D1
:1006E0008D91981306C082E0A63EB807C1F781E05D
:1006F000089580E00895CF93DF93E6EEF2E0DC0109
:1007000016962C91EC012993CE0121912D93D2E0E4
:10071000EC3EFD07B1F7DF91CF910895CF93DF93C2
:10072000EC01188E198E80E48C8B1D8A8E8B40E034
:1007300064E170E0CE010E960E94DC02988F898FF2
:10074000DF91CF910895CF93DF93EC016E96E2EEA7
:10075000F2E0DC015A962C91299321912D9322E00D
:10076000E63EF207C1F70E948E03DF91CF91089514
:10077000CF93DF93FC0182A184A312A283A185A35E
:1007800080910B0183A3DF019A96EF01AE96CF0112
:1007900086963E91630F711D3A916883222311F072
:1007A0003C9301C01C92672F7727A817B90789F7D8
:1007B000211109C016A217A280910A0180A711A6D3
:1007C0008E5F80930A0112AA13AA442351F082E09B
:1007D00086AB84E087AB85E080AF80E881AF80E6C0
:1007E00001C080E586A7DF91CF910895CF93DF9375
:1007F000EC010E947B031C8A82E08D8BCE018096E7
:1008000046EE52E0DE0156962C91FC012193CF0179
:10081000FA012191AF012D93F2E04C3E5F07A1F761
:10082000CE01869642EE52E0DE015C962C91FC01F0
:100830002193CF01FA012191AF012D93F2E0463EC1
:100840005F07A1F7BE018AE290E00E941C02DF91DF
:10085000CF9108950F931F93CF93DF93EC018B01FA
:100860000E947B03CE010E94A3031AA29CA1983F81
:1008700018F08DA18F5F8DA3985F9CA3BE01C80166
:100880000E941C02DF91CF911F910F910895A0E06B
:10089000B0E0EDE4F4E00C941006EC01162FF72E16
:1008A000042FE22ED32E0E947B030D3D08F00CEDA9
:1008B000188A8CE1800F898BCE010E94A303DCA2F1
:1008C000EDA21EA288E0800F8FA318A619A6912F73
:1008D000DE019A96E12FFF2D8E2F891B801718F4C9
:1008E00081918D93F9CF10E0B801605F7F4F41E0B7
:1008F000CE014A960E94DC0298A789A7BE01C801D2
:100900008A960E941C02CDB7DEB7E7E00C942C0655
:10091000CF93DF93EC010E947B03188A8CE2898BD2
:10092000CE010E94A30382E18FA720E041E061E0B5
:1009300070E0CE010E94B80342E060E270E0CE01B8
:100940004A960E94DC029AAB8BABBE018AE390E030
:100950000E941C02DF91CF9108958091DE02909158
:10096000DF02892B31F08091E0029091E1028296C2
:10097000089580E090E00895FC01208930E0322F56
:1009800022278189282B2451310986A582958F70D1
:1009900044E0849FC00111249093E1028093E0021F
:1009A000281B390B121613062CF43093DF02209308
:1009B000DE0208951092DF021092DE0208959C017B
:1009C000CB01461B570BFA01E80FF91FE491EE2308
:1009D00039F0D901A80FB91FD696EC930196F3CF41
:1009E0000895FA012191AF01222339F0FC01E60FAD
:1009F000F71F26AB6F5F7F4FF4CFCB010895CF93E6
:100A0000DF93EC010E947B0380E18FA76091DE02FF
:100A10007091DF0221E040E06115710511F461E0A1
:100A200070E0CE010E94B803188A88E2898BCE015B
:100A30000E94A30342E06CE170E0CE014A960E945E
:100A4000DC029AAB8BABBE0186E390E00E941C02F5
:100A5000DF91CF9108950F931F93CF93DF93EC0114
:100A60008B0189E18FA7CB018896988B898BCE016A
:100A70000E948E031AAA1BAAB801645E7F4F42E04F
:100A8000CE014A960E94DC029AAB8BABBE01C80134
:100A9000C6960E941C02DF91CF911F910F9108957D
:100AA00080E8809361001092610082E38A95F1F7FB
:100AB000219A299A84E091E00E94690182E00E94D3
:100AC000630182E38A95F1F766E774E084E10E94AE
:100AD000400182E38A95F1F7299840E560E071E0F2
:100AE00084E091E00E94300311E068E171E082EC63
:100AF00091E00E945F02EC010097B9F3BC0188E12C
:100B000091E00E944503882329F088E191E00E944A
:100B1000F603EBCFBE0188E191E00E945F038823DA
:100B200021F3112319F0299A10E002C0299811E04D
:100B300080912F01813051F480913A018830A9F6DB
:100B4000BE0188E191E00E942A04CFCF863009F0EF
:100B500045C080913C018111C8CF80913D01803515
:100B600021F68091470181FF05C088E191E00E9454
:100B70008804BBCF84FFB9CF88E191E00E94BC0418
:100B80000E94AD04009749F48091470180FFADCFEA
:100B900088E191E00E94FF04A8CFBC01685E7E4F0F
:100BA00044E050E08CE091E00E943C06892B19F073
:100BB00048EA50E002C048E650E060E070E088E1BA
:100BC00091E00E94DF04EC0188E191E00E94FF04C3
:100BD000BE0188E191E00E942B0587CF813109F0A9
:100BE00084CF80913F0190914201943709F07DCFED
:100BF0008D3009F07ACF20EB34E046E061E171E01E
:100C000088E191E00E94470470CF2F923F924F926B
:100C10005F926F927F928F929F92AF92BF92CF928C
:100C2000DF92EF92FF920F931F93CF93DF93CDB795
:100C3000DEB7CA1BDB0B0FB6F894DEBF0FBECDBF0D
:100C400009942A88398848885F846E847D848C84DE
:100C50009B84AA84B984C884DF80EE80FD800C81E7
:100C60001B81AA81B981CE0FD11D0FB6F894DEBFCA
:100C70000FBECDBFED010895FB01DC014150504096
:100C800030F08D910190801919F40020B9F7881B7C
:080C9000990B0895F894FFCFC1
:100C98000A0000195455581000250A504745542099
:080CA8000068656C6C6F000030
:00000001FF
