:100000000C9434000C943E000C943E000C943E0082
:100010000C943E000C943E000C943E000C943E0068
:100020000C943E000C943E000C943E000C943E0058
:100030000C943E000C943E000C943E000C943E0048
:100040000C943E000C943E000C943E000C943E0038
:100050000C943E000C943E000C943E000C943E0028
:100060000C943E000C943E0011241FBECFEFD8E04C
:10007000DEBFCDBF0E9440000C946D000C940000C8
:1000800080E88093610010926100219A299823EB07
:1000900084EC94E0215080409040E1F700C00000E3
:1000A00023EB84EC94E0215080409040E1F700C0C5
:1000B0000000299A23EB84EC94E02150804090408A
:1000C000E1F700C0000023EB84EC94E02150804075
:0E00D0009040E1F700C00000D9CFF894FFCFB8
:00000001FF
